:020000040000fa
:080000000001040000000000f3
:020000040000fa
:0400080004020000ee
:020000040000fa
:04000c0004020000ea
:020000040000fa
:0400100004020000e6
:020000040000fa
:0400140004020000e2
:020000040000fa
:0400180004020000de
:020000040000fa
:04001c0004020000da
:020000040000fa
:0400200004020000d6
:020000040000fa
:0400240004020000d2
:020000040000fa
:0400280004020000ce
:020000040000fa
:04002c0004020000ca
:020000040000fa
:0400300004020000c6
:020000040000fa
:0400340004020000c2
:020000040000fa
:0400380004020000be
:020000040000fa
:04003c0004020000ba
:020000040000fa
:0400400004020000b6
:020000040000fa
:0400440004020000b2
:020000040000fa
:0400480004020000ae
:020000040000fa
:04004c0004020000aa
:020000040000fa
:0400500004020000a6
:020000040000fa
:0400540004020000a2
:020000040000fa
:04005800040200009e
:020000040000fa
:04005c00040200009a
:020000040000fa
:040060000402000096
:020000040000fa
:040064000402000092
:020000040000fa
:04006800040200008e
:020000040000fa
:04006c00040200008a
:020000040000fa
:040070000402000086
:020000040000fa
:040074000402000082
:020000040000fa
:04007800040200007e
:020000040000fa
:04007c00040200007a
:020000040000fa
:040080000402000076
:020000040000fa
:040084000402000072
:020000040000fa
:04008800040200006e
:020000040000fa
:04008c00040200006a
:020000040000fa
:040090000402000066
:020000040000fa
:040094000402000062
:020000040000fa
:04009800040200005e
:020000040000fa
:04009c00040200005a
:020000040000fa
:0400a0000402000056
:020000040000fa
:0400a4000402000052
:020000040000fa
:0400a800040200004e
:020000040000fa
:0400ac00040200004a
:020000040000fa
:0400b0000402000046
:020000040000fa
:0400b4000402000042
:020000040000fa
:0400b800040200003e
:020000040000fa
:0400bc00040200003a
:020000040000fa
:0400c0000402000036
:020000040000fa
:0400c4000402000032
:020000040000fa
:0400c800040200002e
:020000040000fa
:0400cc00040200002a
:020000040000fa
:0400d0000402000026
:020000040000fa
:0400d4000402000022
:020000040000fa
:0400d800040200001e
:020000040000fa
:0400dc00040200001a
:020000040000fa
:0400e0000402000016
:020000040000fa
:0400e4000402000012
:020000040000fa
:0400e800040200000e
:020000040000fa
:0400ec00040200000a
:020000040000fa
:0400f0000402000006
:020000040000fa
:0400f4000402000002
:020000040000fa
:0400f80004020000fe
:020000040000fa
:0400fc0004020000fa
:020000040000fa
:0401000004020000f5
:020000040000fa
:0401040004020000f1
:020000040000fa
:0401080004020000ed
:020000040000fa
:04010c0004020000e9
:020000040000fa
:0401100004020000e5
:020000040000fa
:0401140004020000e1
:020000040000fa
:0401180004020000dd
:020000040000fa
:04011c0004020000d9
:020000040000fa
:0401200004020000d5
:020000040000fa
:0401240004020000d1
:020000040000fa
:0401280004020000cd
:020000040000fa
:04012c0004020000c9
:020000040000fa
:0401300004020000c5
:020000040000fa
:0401340004020000c1
:020000040000fa
:0401380004020000bd
:020000040000fa
:04013c0004020000b9
:020000040000fa
:0401400004020000b5
:020000040000fa
:0401440004020000b1
:020000040000fa
:0401480004020000ad
:020000040000fa
:04014c0004020000a9
:020000040000fa
:0401500004020000a5
:020000040000fa
:0401540004020000a1
:020000040000fa
:04015800040200009d
:020000040000fa
:04015c000402000099
:020000040000fa
:040160000402000095
:020000040000fa
:040164000402000091
:020000040000fa
:04016800040200008d
:020000040000fa
:04016c000402000089
:020000040000fa
:040170000402000085
:020000040000fa
:040174000402000081
:020000040000fa
:04017800040200007d
:020000040000fa
:04017c000402000079
:020000040000fa
:040180000402000075
:020000040000fa
:040184000402000071
:020000040000fa
:04018800040200006d
:020000040000fa
:04018c000402000069
:020000040000fa
:040190000402000065
:020000040000fa
:040194000402000061
:020000040000fa
:04019800040200005d
:020000040000fa
:04019c000402000059
:020000040000fa
:0401a0000402000055
:020000040000fa
:0401a4000402000051
:020000040000fa
:0401a800040200004d
:020000040000fa
:0401ac000402000049
:020000040000fa
:0401b0000402000045
:020000040000fa
:0401b4000402000041
:020000040000fa
:0401b800040200003d
:020000040000fa
:0401bc000402000039
:020000040000fa
:0401c0000402000035
:020000040000fa
:0401c4000402000031
:020000040000fa
:0401c800040200002d
:020000040000fa
:0401cc000402000029
:020000040000fa
:0401d0000402000025
:020000040000fa
:0401d4000402000021
:020000040000fa
:0401d800040200001d
:020000040000fa
:0401dc000402000019
:020000040000fa
:0401e0000402000015
:020000040000fa
:0401e4000402000011
:020000040000fa
:0401e800040200000d
:020000040000fa
:0401ec000402000009
:020000040000fa
:0401f0000402000005
:020000040000fa
:0401f4000402000001
:020000040000fa
:0401f80004020000fd
:020000040000fa
:0401fc0004020000f9
:020000040000fa
:10020000af8020000e7f24000e0188000000000057
:10021000000020000000e000020032000001200089
:100220002002880014000700790007000000e000a9
:1002300003003a0040812100010020000200370045
:100240000000200001002000810f7000010032003a
:1002500014000700000020000000e000020032004f
:100260000000020000000000ee100200000000008c
:100270000040da000000fe004440a90020312000c8
:100280000000e00003003200002020009001880000
:100290004440a800000006008a1f78008b1f7800e9
:1002a00000000600a1028800800478000000eb0036
:1002b0001f003700e284440054a0b4009905ba003e
:1002c000e284440054a0b4009906ba00e2844400d9
:1002d00054a0b4000006eb00476fde00fd07b2003b
:1002e000ae018800636ce10003003a00eaff0700fa
:1002f0000000eb000e003700606ce10008003a00df
:10030000004deb000a05e800020039003420ec0043
:100310000af0a0008b05e900f9ff3e000400370059
:100320006168e100010032000086eb000b0007006d
:1003300019c7ba001905ba000e04e00003003a001c
:100340000a00e000dbff3a0000000600fe07b200f2
:10035000ae0288008a047800f5ff37000cd0a300b5
:10036000e20f4d001c00390089027800354dba00bb
:100370000a05e800020039003420ec000af0a00071
:100380008b05e9000f003200254dba000a05e80090
:10039000020039003420ec000af0a0008b05e900cf
:1003a000080032000c00e0000600320015cdba0053
:1003b0000a05e800020039003420ec000af0a00031
:1003c0008b05e9008984e80054a0b4000b00e0002c
:1003d000e2ff3a00000006009902ba00055d7800cd
:1003e0008b05e900f7ff3200c82ade00055d7800c2
:1003f0008b05e900f3ff32000c00e000f1ff320052
:1004000019ddba00eeff37000040da000000fe0000
:1004100000000500839f68000100e00002003d002d
:1004200060001000e08018000300e00002003d00c2
:1004300060011100e0811900050007004f00e00095
:1004400002003b0060001000e08018000000060081
:100450006022b800060220000000d0008180d20097
:100460000482d2008582d2000000a0000202520065
:1004700083825a00030031000202420083824a0054
:100480000000a1000603e900f3ff3a0000000600a7
:020000040000fa
:100490005f5f000005080000000000000000000091
:1004a0000000000000fa00000000000000e0000072
:1004b00000e0000000280000fe280000fe280000e8
:1004c00024540000fe54000048c40000c81000007e
:1004d000264600006c9200006a0400000a0000003a
:1004e00010e00000c000000000380000448200005e
:1004f0000000000082440000380000005438000072
:10050000fe38000054100000107c000010100000a5
:10051000000000000e0c0000001000001010000091
:10052000101000000000000006060000000400009b
:1005300008100000204000007c8a000092a2000009
:100540007c00000042fe0000020000004e9200000d
:10055000929200006284000082920000b2cc0000ff
:100560001828000048fe000008e40000a2a20000d5
:10057000a29c00003c520000929200008c8200007d
:100580008488000090e000006c92000092920000cd
:100590006c6200009292000094780000000000005d
:1005a0002800000000000000022c000000000000f5
:1005b00000100000284400008228000028280000c5
:1005c000282800000082000044280000104000009d
:1005d000809a0000906000007c820000ba9a0000bf
:1005e000723e000048880000483e0000fe92000075
:1005f000929200006c7c0000828200008244000025
:10060000fe820000828200007cfe000092920000c8
:1006100092820000fe90000090900000807c00001c
:10062000828200008ace0000fe1000001010000040
:10063000fe00000082fe00008200000004020000b4
:1006400082fc000080fe00001028000044820000b0
:10065000fe0200000202000002fe0000403800001e
:1006600040fe0000fe20000010080000fe7c00009c
:1006700082820000827c0000fe90000090900000ca
:10068000607c0000828a0000847a0000fe900000f6
:10069000989400006264000092920000924c000066
:1006a000c0800000fe800000c0fc000002020000cc
:1006b00002fc0000f804000002040000f8fc000046
:1006c000021c000002fc0000c628000010280000e8
:1006d000c6c00000201e000020c00000869a000056
:1006e00092b20000c2000000fe8200008282000080
:1006f000402000001008000004000000828200007a
:1007000082fe000020400000804000002002000027
:10071000020200000202000000c00000e010000021
:10072000000400002a2a00001c020000fe14000041
:10073000222200001c1c00002222000022140000c3
:100740001c22000022140000fe1c00002a2a0000c7
:100750002a180000001000007e90000040300000c9
:100760004a4a0000523c0000fe1000002020000019
:100770001e00000022be0000020000000402000073
:1007800002bc000000fe000008140000220000006f
:1007900000820000fe020000003e0000201e00005b
:1007a000201e00003e100000202000001e1c000043
:1007b00022220000221c00003e1800002424000019
:1007c0001818000024240000183e00003e1000000d
:1007d00020200000101200002a2a00002a24000015
:1007e00020200000fc220000243c00000202000047
:1007f000043e00003804000002040000383c000001
:10080000020c0000023c000022140000081400004a
:10081000223200000a0a00000a3c000022260000e2
:100820002a32000022000000106c0000820000004c
:1008300000000000fe00000000000000826c0000cc
:100840001000000040800000402000004000000038
:10085000dff700005aff0000ff070000fa7f0000ea
:10086000fff70000bbf7000038ff000000000000a9
:1008700059ff00001f0000005c89000045a1000036
:10088000d0dd0000f45c0000e07f000043d30000f6
:10089000eafb0000bd640000dbff0000a7d80000f9
:1008a000ff070000110000005104000021bc0000ff
:1008b00055ad00002003000055ad0000adbd0000a7
:1008c000118800004553000060fc00009999000069
:1008d00000880000afec0000f18d0000f14900003d
:1008e000692a0000692a00007a0600001a900000b8
:1008f000b2f80000ff0500004d6b00004d6b0000da
:100900009f1c000004b10000deff00004424000032
:100910001ff80000fbde0000dfff0000a0fe00006b
:1009200024dd00001084000000040000e5af00009a
:1009300010840000fef7000056fb0000ebca000028
:1009400010480000feff000031f700003fe7000004
:100950009eff0000e07f0000d9ff0000dcae000039
:1009600010f40000ffe70000daff00009ad6000054
:10097000729700009ad60000b8fd00000ffd00003d
:10098000952500007f86000053740000537400001a
:100990003bb60000fcff0000e007000066360000e8
:1009a0009cff00001ff8000000800000756600003a
:1009b00019000000baba00009b9300008e3d0000b1
:1009c0005d7b0000d3070000994e0000b0c000001e
:1009d000ce180000fff700003cff000036ff0000cb
:1009e000f5fe000010000000bcff000000840000c5
:1009f000646c000020fd000020fa00009adb00007b
:100a000055ef0000d39f00007daf000092db000097
:100a10007aff0000d7fe000027cc000019fe00007e
:100a20001bdd00001cb700001080000000f8000073
:100a300071bc00005c430000228a00000efc000034
:100a40002cf500004a2c0000bdff000085a200002c
:100a500018c600007d860000d96a000012740000ec
:100a600012740000dfff0000ef07000016440000d2
:100a7000b1d5000010040000fbdd000008fb000001
:100a80001a4700001dec0000f6f60000ffff000012
:100a9000bef70000e0ff0000669e0000200100009d
:100aa0000000000000000000200100000f00000016
:040ab0000000000042
:020000040000fa
:100ab4000400fa000e81e800004978006300470052
:100ac400014878000e80e800104078008080fb0028
:100ad40063004700104078000000fb00008f4000d6
:100ae40080242800104078000080fb009e0f5000f6
:100af40003003d0080242800104078000a003700dd
:100b04001e0078000000e00002003d000040eb0001
:100b14000500370063004700904078000e80e8002d
:100b24001040780000c040000080fa000000060079
:100b34000200fa00004f78000e00e8000148780037
:100b440080242800104078009e40780080cf500018
:100b540006003e0090242800104078008e00e80033
:100b64009140780080cf5000020036000000eb0076
:100b740008003700f1c5b3001e4078005b0707008a
:100b8400f1c5b3000e00e800104078003d070700ef
:100b9400870707000080fa00000006000400fa003e
:100ba400004f78000e00e800014878000e80e8004d
:100bb4000208780080242800104078009e407800c5
:100bc40080cf500011003e0090242800104078008f
:100bd4008e00e8009140780080cf50000d003e0068
:100be400f1c5b3001e40780040070700f1c5b3000b
:100bf4000e00e80010407800220707000e80e8008d
:100c04001000780088070700030037000000000088
:100c140001003700000000000080fa000000060018
:100c24000e00fa0068024700004a78006900470095
:100c3400014878006a004700024878006c004700c9
:100c44000308780068004700104078008080fb00ab
:100c54006a004700104078000080fb00808050004c
:100c640080242800104078000080fb00808f500012
:100c74009c003c0069004700104078008080fb0025
:100c84006a004700104078000080fb00808050001c
:100c940090242800104078000080fb00808f5000d2
:100ca40092003c006a004700104078000004e00015
:100cb40001003a0010c0b300ea0047008048780001
:100cc4006a004700104078008040780068004700c0
:100cd4001040780076ff07008e80e8008048780096
:100ce4006a004700104078000040ea008040780025
:100cf40068004700104078006dff0700e3004700dc
:100d0400804878006a0047001040780080407800ee
:100d1400690047001040780065ff0700e4004700c1
:100d2400804878006a004700104078000040ea00dc
:100d34008040780069004700104078005cff07009d
:100d4400e50047008048780063004700104f7800b2
:100d54005e00370068004700104078009e4f500046
:100d64000400390068004700104078001e4050001d
:100d7400040037009e407800680047001040780067
:100d840000c05000e6004700804878000e00e800ec
:100d9400e500470011487800450037006900470026
:100da400904078000e00e8001040780080cf50009a
:100db4000600390069004700904078000e00e80002
:100dc4001040780000c05000050037000e00e80015
:100dd40090407800690047001040780000c050003f
:100de400e70047008048780067004700104078001b
:100df4008080fb0066004700104078000080fb0004
:100e0400808040006a004700104078000080fb00aa
:100e1400808f50001b0034006700470010407800aa
:100e24008080fb0067004700104078000080fb00d2
:100e34000088b9000001780066004700104078007f
:100e44008080fb0066004700104078000080fb00b3
:100e54000088b90000007800000141006a004700e2
:100e6400104078008080fb006a0047001040780042
:100e74000080fb000088b90000007800800f51005a
:100e840006003c006c004700100178000e00e800ea
:100e9400904078001e40780040ff07000e00e800f4
:100ea400104078008040e8000e00e8000148780017
:100eb4000e00e8009040780064004700104078007d
:100ec40080cf5000b5ff39001e4fe8000e80e800c7
:100ed400104078009e40780080cf50009dff39007c
:100ee400030037000000000001003700000000008c
:100ef4000080fa00000006000c00fa0066024700b9
:100f0400004a7800670047000148780068004700fd
:100f1400024878006a004700030878008040eb002c
:100f24000e00e800014878008040eb000e80e800e5
:100f3400014878008040eb006300470001487800d6
:100f44008000eb0064004700010878006800470057
:100f5400104078000004e00001003a0010c0b30023
:100f6400e800470080487800680047001040780097
:100f74000040e800004f78008040eb000e00e800dd
:100f8400014878008040eb000e80e80001487800ba
:100f94008000eb0064004700010878009f003700e0
:100fa4000e00e800104078000000fb000000400044
:100fb4000000e800e40047009100780080804000d1
:100fc40064004700010878000e00e8001040780033
:100fd4008040e8000e00e800014878006400470003
:100fe400100078000000e0008c0035007a00370023
:100ff400630047008e80e800114878006d003700d8
:101004000e80e800904078006700470010407800a8
:1010140080c040006300470010417800660047002c
:1010240010407800004041006a0147001201780036
:10103400dafe07000e80e80010407800e700470061
:101044009140780080c05000630047001041780050
:101054006600470010407800004041006a014700e4
:1010640012017800cdfe07000e80e8009040780061
:10107400670047001040780080c0400063004700cc
:10108400104078006601470012417800004051008a
:101094006a01470012017800c0fe07000e80e800d4
:1010a40010407800e70047009140780080c050006d
:1010b4006300470010407800660147001241780041
:1010c400004051006a01470012017800b3fe070096
:1010d40063004700904078006700470010407800a4
:1010e40080c040000e80e800104178006600470090
:1010f40010407800004041006a0147001201780066
:10110400a6fe07006300470010407800e700470090
:101114009140780080c050000e80e80010417800b3
:101124006600470010407800004041006a01470013
:101134001201780099fe0700630047009040780090
:10114400670047001040780080c040000e80e8002f
:1011540010407800660147001241780000405100b9
:101164006a014700120178008cfe07006300470003
:1011740010407800e70047009140780080c050009c
:101184000e80e800104078006601470012417800a4
:10119400004051006a014700120178007ffe0700f9
:1011a40063004700104078008040e8006300470077
:1011b4000148780063004700104078009e4f5000bb
:1011c4008fff35000e80e800104078008040e80072
:1011d4000e80e800014878000e80e8009040780016
:1011e4000e00e8001040780080cf500080ff3500ea
:1011f4009e00fb00e0ff2f000088b900000078008b
:101204000000e800e400470091007800808040007e
:1012140064004700010878001e4fe9000e00e80052
:10122400104078009e40780080cf50005cff3d0065
:101234000080fa00000006000a00fa00e4024700f9
:10124400804a78006500470001487800660047003e
:1012540002487800670047000348780068004700a8
:101264000408780067004700104078000080fb0005
:101274000000d10000407800e6004700914078006b
:1012840080c04000660047000148780091003700a4
:1012940066004700104f78008040eb000e00e80025
:1012a400014878008000eb000e80e8000108780017
:1012b4007e0037000e00e80090407800650047008b
:1012c4001040780080c040001e4178006400470050
:1012d4001040780000404100680147001201780086
:1012e4002efe07000e00e80010407800e5004700dd
:1012f4009140780080c050001e417800640047008f
:101304001040780000404100680147001201780055
:1013140022fe07000e00e8009040780065004700b8
:101324001040780080c040001e40780064014700ef
:101334001241780000405100680147001201780012
:1013440016fe07000e00e80010407800e500470094
:101354009140780080c050001e407800640147002e
:1013640012417800004051006801470012017800e2
:101374000afe07009e407800650047001040780090
:1013840080c040000e00e80010417800640047006f
:1013940010407800004041006801470012017800c5
:1013a400fefd07001e407800e500470091407800ec
:1013b40080c050000e00e80010417800640047002f
:1013c4001040780000404100680147001201780095
:1013d400f2fd07009e407800650047001040780049
:1013e40080c040000e00e80010407800640147000f
:1013f4001241780000405100680147001201780052
:10140400e6fd07001e407800e500470091407800a3
:1014140080c050000e00e8001040780064014700ce
:101424001241780000405100680147001201780021
:10143400dafd07000e00e800104078000000fb0011
:10144400000040000000e8008e80e8009100780071
:10145400808040000e80e800010878000e00e8005b
:10146400104078008040e8000e00e8000148780051
:101474000e80e800100078000000e0000b0035004a
:101484009e00fb00e0ff2f000088b90000007800f8
:101494000000e8008e80e800910078008080400021
:1014a4000e80e800010878001e4fe9000e00e800f5
:1014b400104078009e40780080cf50007dff3d00b2
:1014c40066004700104078008040e900660047004d
:1014d4000148780067004700104078000080fb0056
:1014e4000000ea004f00de0000407800e7004700fb
:1014f400914078000141e900e70047008248780004
:101504000004e00062ff3a000080fa0000000600d8
:101514000e00fa0066034700004b7800670047009e
:1015240001487800680047000248780069004700d5
:10153400034878006a004700044878006c004700bc
:10154400050878006a004700104078000004e000b5
:1015540001003a0010c0b300ea0047008048780058
:10156400680047009040780066004700104078000b
:1015740080c05000630047000148780069004700bc
:1015840090407800670047001040780080c0500009
:1015940064004700014878006400470090407800e8
:1015a400630047001040780080c050000e80e800bf
:1015b400014878000e00e800e70047001148780071
:1015c40066004700104f78003c0037009e00fb0087
:1015d40080242800104078000080fb00808f500099
:1015e4001e003c000e00e800104078008000fb0064
:1015f40090242800104078000080fb00808f500069
:1016040016003c006a00470010407800e14f50008b
:1016140007003e000e00e800904078001e4078006d
:101624006c014700120178005cfd07000b003700d5
:101634006a004700104078000080fb000000d100e1
:10164400004178000e00e800904078001e407800c9
:10165400ec0147009301780027fe07000e80e800a4
:10166400104078000004e0000c0035000e00e80093
:10167400104078008040e8000e00e800014878003f
:101684000e80e80090407800630047001040780026
:1016940080c050000e80e800014878000e80e80009
:1016a40090407800640047001040780080c04000fb
:1016b4000e80e800014878001e4fe8009e00fb0001
:1016c40068004700104078000080fb00808f5000c5
:1016d400beff35000080fa00000006000800fa0092
:1016e4008e82e800804a7800630047000148780051
:1016f400640047000248780065004700034878000a
:1017040066004700040878006400470090407800b1
:101714000e80e8001040780074040700650047005c
:10172400904078006300470010407800550407009b
:101734000e80e800104f7800160037000e00e80015
:10174400e3004700114878000800370066004700ae
:1017540010007800b40407000e00e8001040780080
:101764008040e8000e00e800014878000e00e80020
:10177400104078008080fb0065004700104078002e
:101784000080fb000000e800808f5000efff350070
:101794001e4fe8009e80fb00640047001040780064
:1017a4000080fb000000e800808f5000e3ff35005c
:1017b4000080fa00000006001000fa0068034700e9
:1017c400004b780069004700014878006a00470030
:1017d400024878006b004700034878006c0047001b
:1017e400044878006e004700050878006c00470044
:1017f400104078000080fb0001fe2f008080400034
:10180400a0242800104078000080fb000088b90064
:101814000000780080007800c0242800008f400079
:101824008000eb000e80e8000108780053003700c8
:101834009e00780066004700114878001e0fe800fb
:10184400b0242800104078008080fb006b00470023
:10185400104078000080fb000088b9008000780008
:10186400640047000108780038003700660047002c
:10187400104078000080fb006100600000407800a8
:101884000004e000230032006400470010007800e8
:1018940080407800690047001040780080c0400014
:1018a4006b0047001040780000c040008041e90010
:1018b4000e80e8001000780080407800680047003f
:1018c4001040780080c040006a0047001040780053
:1018d40000c040000041e9006400470010007800a7
:1018e40080407800690047001040780080c04000c4
:1018f4000e80e8001000780000427800680047007d
:1019040010407800004042006e0247001402780044
:1019140072ff070066004700104078000080fb005b
:101924008000d10066004700014878006b00470042
:10193400104078000080fb00e4004700910078002c
:10194400808050006400470001087800640047006c
:10195400100078000000e000c4ff3a006a0047006d
:10196400104078000080fb008e80e8009100780031
:10197400808040000e80e80001087800a024280040
:10198400104078008080fb006a0047001040780017
:101994000080fb000088b900000078008e80e80019
:1019a40091007800810f5000a1ff3e000080fa00f2
:1019b400000006000800fa00004f78000e00e8005e
:1019c400014878000e80e800024878006300470070
:1019d4000348780064004700040878006600470064
:1019e400050878001d0037006400470010007800e7
:1019f40010407800e4004700910078000101e800fd
:101a0400e400470082087800e6004700910278006d
:101a14000042780063004700904178000e80e8009f
:101a2400104178000e00e800904078001e407800d5
:101a340061ff0700a0242800104078008e80e80091
:101a4400914078008180fb000088b9000000780094
:101a5400004078001e404000004fe800640047004a
:101a640010007800104078000004e000deff3a0027
:101a74000080fa00000006001400fa00889fbe00ef
:101a8400ea034700804b78006b0047000148780068
:101a94006c004700020878006e0047000348780095
:101aa4006f0047000448780070004700050878007c
:101ab400720047000648780001c2b3006600470080
:101ac400014878006e004700104078000004e000f0
:101ad400030032006e004700104078000100370018
:101ae40010c0b300ee004700804878006f00470044
:101af400104078000004e000030032006f0047004b
:101b0400104078000100370010c0b300ef00470018
:101b1400804878000040eb00004f78005e003700fa
:101b240070004700900078000e80e80031187800bb
:101b3400211078007000470010007800e400400095
:101b440070004700010878001e407800ef0047004d
:101b5400914078008180fb000088b9000000780083
:101b6400804078006b0047001040780080c040003f
:101b740067004700014878008040eb000e00e80051
:101b8400014878003d0037000e80e8001000be00d8
:101b940000007800610060008004eb00000478001d
:101ba4000800be00e00f5000e08f580028003a0003
:101bb40066004700104078008080fb000e00e800bb
:101bc400104078000080fb00008050000040780046
:101bd400ee004700914078008180fb000088b90046
:101be40000007800804078006a00470010407800c8
:101bf40080c0400068004700014878006700470043
:101c0400904078006f0047001040780000c040000a
:101c14008040e90068004700104178006e004700ea
:101c240010407800004041000040e9006c0147008a
:101c34001202780081417800004178006700470073
:101c4400904078006800470010407800a3fe070029
:101c54000e80e8001000be008100d1000080d30097
:101c64000e81e8000089be000e00e80010407800f4
:101c74008040e8000e00e800014878000e00e8000b
:101c840090407800660047001040780080cf5000f4
:101c9400bdff39001e4fe800720047001040780075
:101ca4009e40780080cf50009dff39004f04be0055
:101cb4000080fa00000006000200fa000000eb00b9
:101cc400000f7800010037001e0fe8002133800068
:101cd40000802000008060000000e000faff320075
:101ce4001e007800ea0f50000500340010002000a8
:101cf400304088000000eb00000f7800030037003c
:101d04000628ef00010037001e0fe8002133800091
:101d140000002100008060000000e000faff3200b3
:101d24001e007800ea0f5000050034001000200067
:101d3400404088000000eb00000f780001003700ed
:101d44000828ef000080fa00000006000800fa00ee
:101d54006401470000097800660047000108780024
:101d64006000b800008fbe006600470010007800d5
:101d7400e10f500008003200e20f50000a00320068
:101d84000000e0000c003a006400470010007800f6
:101d9400b011880046003700640047001000780046
:101da40000128800420037006400470010007800e9
:101db400501288003e00370064004700100078008d
:101dc400cf80de00008fbe00b01180008000eb00e9
:101dd4001e0178000191b900020178008e81e800ab
:101de40093017800009ab90084017800030141004e
:101df4009e0178000018b8000101410082007800bb
:101e0400f23f20000300200081f907000000780061
:101e1400b0118800b01180008000eb001e01780032
:101e24000191b900020178008e81e80093017800e5
:101e3400009ab90084017800030141009e017800f2
:101e44000018b8000101410082007800f23f200030
:101e5400030020006ef907000000780000128800db
:101e6400b01180008000eb001e0178000191b900e0
:101e7400020178008e81e80093017800009ab9008d
:101e840084017800030141009e0178000018b80025
:101e94000101410082007800f23f2000030020008d
:101ea4005bf9070000007800501288000000000071
:101eb4000080fa00000006000000fa004627a8008f
:101ec40020032000fb0307004627a90000000000b0
:101ed400303a8000610060000000e000fcff320046
:101ee400903880000080fa00000006000200fa002a
:101ef400000f78001e007800e10f5000120032003d
:101f0400e20f50001f0032000000e0002c003a00f5
:101f1400713f800000f82f0000806000d000b30003
:101f2400703f8800713f8000f00f2800008060003f
:101f3400703f8800513f8000f00f2800008060004f
:101f4400503f88002f003700713f800000f82f00b9
:101f540000806000703f8800713f8000f00f28000f
:101f64008080600000e0200001007000703f880065
:101f7400513f8000f00f280000806000503f88002f
:101f840020003700713f800000f82f0000806000bf
:101f9400703f8800713f8000f00f280000806000cf
:101fa400703f8800513f8000f00f2800808060005f
:101fb40000f0200001007000503f8800110037003d
:101fc400713f800000f82f0000806000d000b30053
:101fd400703f8800713f8000f00f2800808060000f
:101fe40000e0200001007000703f8800513f800035
:101ff400f00f28008080600000f0200001007000d5
:10200400503f88000080fa00000006000000fa003b
:102014000000eb00dd0207001033800000b0a000d8
:10202400103388001033800000c0a00010338800f3
:10203400103380000080a10010338800103380002a
:102044000090a10010338800b033800000c0a000cd
:10205400b0338800f033800000c0a000f033880063
:1020640080002000603a8800313a8000f0f02f00b0
:1020740000806000303a8800313a8000f0cf2f00b1
:1020840000806000303a88004747a80047e7a8006e
:102094004827ef004a27ef0000c0eb004ae7b700eb
:1020a400513a8000f00f2e000080600000c0a000b4
:1020b400503a8800713f800000f82f0000806000d3
:1020c400d000b300703f8800713f8000f00f2800fb
:1020d4008080600000e0200001007000703f8800f4
:1020e400513f8000f00f28008080600000f0200045
:1020f40001007000503f880000402000a0118800bb
:1021040000402000f01188000040200040128800a8
:1021140040062000b011880040062000001288000c
:10212400400620005012880090118000f001b30096
:102134009011880032e2a9008111800000c02100c2
:1021440001007000801188008111800080ff2f0041
:10215400008060006000b3008011880032c2a800d3
:10216400e0118000f001b300e01188003ce2a90016
:10217400d111800000c0210001007000d01188003e
:10218400d111800080ff2f00008060006000b30048
:10219400d01188003cc2a80030128000f001b300c6
:1021a4003012880046e2a9002112800000c02100fc
:1021b40001007000201288002112800080ff2f008f
:1021c400008060006000b3002012880046c2a800ae
:1021d4000080fa00000006001a00fa002f0307002e
:1021e4008aff07000080eb00000f78004106200002
:1021f4006e00470001087800410620007000470087
:1022040001087800410620007200470001087800a8
:102214008000eb000e80e800010878008000eb00ed
:1022240064004700010878008000eb006c00470060
:1022340001087800010037000000000040408000e1
:102244000000e0003a0032009e00e8003000200068
:1022540000017800110009008200d8008000fd0010
:10226400000f78001e00780020ff070092fe070090
:102274002300370010ff0700800078000e80e8007c
:10228400010878001e0078000000400000004700ac
:102294006e004000100078000005b1008e80e80058
:1022a40091007800810f50000a003c001e00780065
:1022b40000004000000047006e004000100078005d
:1022c4000005b0008e80e80091007800810f500076
:1022d4000a003d001e007800000040000000470096
:1022e4006e0040008e80e800110878009e0078009f
:1022f4000e80e8001000780094fe07006efe0700d0
:10230400404080000000e00003003a0030408000bc
:102314000000e000d7ff32001e00780000004000fb
:10232400000047006e0040008e80e800110878002d
:10233400304080000000e000bfff32008000eb006e
:102344006600470001087800110037006600470066
:102354001000780000004000000047006e004000bc
:1023640090007800660047001000780000004000ec
:102374000000470074004000010878006600470030
:10238400100078008000e80066004700010878002b
:102394006600470010007800e20f5000ebff3400a5
:1023a4000080eb00000f78001e007800cffe0700cd
:1023b400640047008e80e800110878003efe0700a4
:1023c40033003700bcfe0700800078006c00470033
:1023d4000108780064004700100078000005b1008f
:1023e400ec00470091007800810f500007003c008a
:1023f40064004700100078000005b000ec004700be
:1024040091007800810f500020003d008000eb0017
:102414006800470001087800110037006800470091
:1024240010007800000040000000470074004000e5
:102434009000780068004700100078000000400019
:10244400000047006e004000010878006800470063
:10245400100078008000e800680047000108780058
:102464006800470010007800e20f5000ebff3400d2
:102474009e0078006c0047001000780033fe0700cf
:1024840064004700ec004700110878000afe0700ca
:10249400304080000000e000caff32008000eb0002
:1024a4006a00470001087800110037006a004700fd
:1024b4001000780000004000000047007400400055
:1024c400900078006a004700100078000000400087
:1024d400000047006e004000010878006a004700d1
:1024e400100078008000e8006a00470001087800c6
:1024f4006a00470010007800e20f5000ebff340040
:102504000000eb0079fe07000000eb00000f7800ec
:102514004aff37000200fa00000f7800c0052000cf
:102524009e007800808f500004003200d005200007
:102534009e007800808f500009003a00c0052000fa
:102544009e007800808f500002003a0010c0b30053
:102554000100370020c0b30000e8b70001003700d5
:102564000068ef000080fa00000006000200fa0094
:10257400004f78000e00e800014878003d01070094
:102584000004a2000004e000020032000080eb001e
:102594000f0037001e4078009b010700004f7800b1
:1025a4000e00e80010407800970107008e00e80054
:1025b40080487800800107001e80fb00c800dd0011
:1025c4000e00e800104078000080fb00010070005d
:1025d4000080fa00000006000200fa0020c3b300e5
:1025e400004f780012c0b3008e007800000a20006b
:1025f4008000070000c2b300004f780012c0b3008f
:102604008e007800100a20007a0007000080fa008b
:10261400000006000000fa000041eb008000eb001f
:10262400c0052000730007008f26a9008e66a8004d
:102634000080fa00000006000000fa000041eb00f0
:102644008000eb00d00520006a0007008f26a90057
:102654008e66a8000080fa00000006000800fa0058
:102664000001780066004700010878006600470012
:10267400100078004800de00004f78006600470034
:10268400900078000e00e800014878001e80fb00ee
:102694004300de00804078000e80e80001487800a6
:1026a4001e80fb00670060004300dd00804078006e
:1026b4000e00e800104078000080fb004500de00ba
:1026c4000040780000c0700080407800630047003c
:1026d400014878000e00e80010407800ff406000d8
:1026e40064004700014878000e80e800820078000a
:1026f400904878008100e8000000e80090487800e5
:102704008100e8000000e800904878008100e800bb
:102714000000e800020078000080fa0000000600d3
:102724000600fa008e81e8008049780063004700c3
:102734000148780064004700024878000e80e800f1
:1027440010407800ff4060000e80e80001487800e7
:102754006300470010407800f2c3b3008240600079
:102764006300470001487800640047001040780087
:10277400ff40600064004700014878000e80e800d4
:10278400104078000080fb004300dd0080407800aa
:1027940063004700104078000080fb004300de0027
:1027a4000040780000c07000004f780063004700cc
:1027b400104078000080fb004500dd008040780078
:1027c400640047001040780080c070000e00e800ec
:1027d400014878001e80fb00c800dd000e00e80000
:1027e400104078000080fb00010070000080fa00b7
:1027f400000006000600fa00000f78000e80e800d2
:102804000108780064004700024878009900070036
:102814000004a2000004e00017003a008f26a9007b
:102824008e66a9001e00780000407800f6000700bc
:1028340064004700104078000004e0000900320002
:102844008e66a80064004700104078000080fb00fa
:10285400800078000e80e800100078001501070061
:102864008e66a9008f26a800d30007001e007800fa
:1028740028ff070001003700000000000080fa0074
:10288400000006000400fa000e81e8000049780008
:1028940063004700014878000e80e800104078008b
:1028a400f1c5b300814f500001003600f0c5b300fc
:1028b400004f78006300470010407800f1c5b30072
:1028c400814f500001003600f0c5b3008e00e800cf
:1028d4008048780022c0b3008e00780050072000a2
:1028e400c4ff07000080fa00000006000400fa009c
:1028f4000e81e80000497800630047000148780031
:102904000e80e80010407800f1c5b300814f5000fc
:1029140001003600f0c5b3008e80e80080487800de
:102924006300470010407800f1c5b300814f5000a8
:1029340001003600f0c5b300e3004700804878008a
:102944000e80e8001040780070404000004f78008e
:102954006300470010407800f04040000e00e8009b
:102964000148780022c0b3008e0078005001200096
:10297400a0ff07000080fa00000006000200fa0031
:10298400004f78001e4078000004e000020032008e
:10299400e00a200001003700f00a20000041eb00ab
:1029a4008000eb0093ff07000080fa00000006009f
:1029b4000000fa0000c8bf00e24f500001003200de
:1029c4001dff070000c8bf00e24f500002003200a4
:1029d4000080eb000300370080c0eb0000c0eb0078
:1029e400e2fe07000080fa00000006000400fa007e
:1029f400004f78000e00e800014878000e80e800df
:102a0400024878000e80e800104178000e00e800cb
:102a1400904078001e40780041ff07000200070044
:102a24000080fa00000006000200fa00000f78009f
:102a340000c8bf00e14f500001003200f5fe07005e
:102a440000c8bf00e14f500007003a001e007800a4
:102a5400804078001e0078004800de0000407800c6
:102a6400c2fe070001003700000000000080fa00e9
:102a7400000006000000fa00530007000080fa007e
:102a8400000006000000fa0063a6a90077a6a900ca
:102a940077e6a9008a26a9008a66a9008b06a90000
:102aa4008b26a9008f06a90067a6a8008e26a90078
:102ab40010002000ff00070067a6a90020002000e6
:102ac4000d01070067a6a8008f06a80010002000cb
:102ad400f80007000040eb00a8ff0700800c20006e
:102ae400f4000700f1c5b3000040eb007fff0700ce
:102af400f1c5b3000040eb0062ff0700b6fe07001b
:102b04000080fa00000006000200fa0001c6b300cb
:102b14000040eb0075ff070001c6b3000040eb0066
:102b240058ff07000040eb00004f78001100370009
:102b34008040eb000e00e8000148780007003700f1
:102b440010408000b8ff07000e00e8001040780035
:102b54008040e8000e00e800014878000e00e8001c
:102b640090407800f0c5b30080cf5000f4ff3600e9
:102b74001e4fe800f0c5b3009e40780080cf50009f
:102b8400ebff36000080fa00000006000200fa00a5
:102b9400000f78009e00780011408800daff0700db
:102ba4000080fa00000006000000fa0010408000d7
:102bb4000080fa00000006000000fa00f5e3a90016
:102bc4000080fa00000006000000fa00a11f800047
:102bd40000002800008060000000e00007003a00c8
:102be40000122000a01f88000424ef0077e6a9004b
:102bf400f5e3a80010c0b300010037000040eb006b
:102c04000080fa00000006000200fa00004f78007d
:102c14001e80fb000020880000000000e01f8000f0
:102c2400610060000000e000fcff32000020800032
:102c3400004078000080fa00000006000600fa0058
:102c44000e81e8000009780064004700010878005c
:102c54000e80e800100f7800060037001e00780090
:102c640010407800e8ff07009e0078008048780054
:102c74001e0fe800640047001000780000f0a70071
:102c84000000ea000000ea004f00de000040780087
:102c9400e4004700910078000101e900e4004700e6
:102ca400820878000004e000ecff3a000080fa009b
:102cb400000006000600fa000e81e8000009780012
:102cc40064004700010878000e80e800100f7800c7
:102cd400040037001e007800104078001e0fe80042
:102ce400c9ff0700640047001000780000f0a70047
:102cf4000000ea000000ea004f00de000040780017
:102d0400e4004700910078000101e900e400470075
:102d1400820878000004e000eeff3a000080fa0028
:102d2400000006000600fa000e81e80000097800a1
:102d340064004700010878000e80e800100f780056
:102d4400050037000040eb00afff07009e0078004d
:102d5400804878001e0fe8006400470010007800e7
:102d640000f0a7000000ea000000ea004f00de00c7
:102d740000407800e4004700910078000101e90078
:102d8400e4004700820878000004e000edff3a0008
:102d94000080fa00000006000200fa00004f7800ec
:102da4001e80fb00002088000080fa00000006005e
:102db4000000fa0000208000004078000080fa0043
:102dc400000006000000fa006626ef007a26ef00f5
:102dd4008e26ef000080eb00103388000080eb00ab
:102de400b03388000080eb00503488007426ef0074
:102df4008826ef009c26ef007226ef008626ef005f
:102e04009a26ef006826ef007c26ef009026ef005c
:102e140001088000f00b20000081600060042000a5
:102e24007105200003102000804978008149780052
:102e340082497800113f800000f82f000080600074
:102e44007000b300103f8800113f8000f00f28008d
:102e54000080600000b0a000103f8800c13d8000e9
:102e640000fc2f0000806000d000b300c03d88004b
:102e740000088000000178000260a00060042000c7
:102e840071052000031020008049780081497800f2
:102e9400824978000080fa00000006000000fa0071
:102ea400c8ff07002e000700f6fe07000080fa00a6
:102eb400000006000200fa00000f7800030037004b
:102ec40000fa200001002000480007001e007800de
:102ed40000f0a7000000ea000000ea004f00de0056
:102ee400004078001e0fe9000004e000f4ff3a00ff
:102ef4000080fa00000006000200fa00000f7800cb
:102f040005003700000820000100200037000700fa
:102f140001fe2f001e8f40001e007800ff0f50009e
:102f2400f8ff3e00030037004000200001002000ad
:102f34002e0007001e00780000f0a7000000ea0041
:102f44000000ea004f00de00004078001e0fe90098
:102f54000004e000f4ff3a000080fa0000000600dc
:102f64000000fa0000002300100888000621ef008a
:102f74006821ef006a21ef000821ef0000702000b3
:102f8400500888000c21ef000e21ef007821ef009b
:102f94007a21ef007c21ef007e21ef008021ef00f9
:102fa4008221ef008421ef008621ef000001eb0075
:102fb40080072000a1092000131020008049780018
:102fc40081497800824978000001eb006004200008
:102fd40071052000031020008049780081497800a1
:0c2fe400824978000080fa00000006001e
:020000040000fa
:102ff000f03fb1000180b10006003500ee0309008a
:1030000000000000403fb1000180b100fbff3d0027
:103010001000b000203fb000020035000080090021
:083020000000000000000600a2
:020000040000fa
:103028000008000004000000800000000408000000
:1030380002000000800000000608000002000000f6
:103048008000000008080000020000008200000064
:0830580001000000000000006f
:020000040000fa
:020000040005f5
:045e0000ffffff00a1
:020000040000fa
:020000040005f5
:045e2000ffffff0081
:020000040000fa
:020000040005f5
:045e300078ffff00f8
:020000040000fa
:020000040005f5
:045e38004bffff001d
:020000040000fa
:020000040005f5
:045e40009fffff00c1
:020000040000fa
:020000040005f5
:045e4800ffffff0059
:020000040000fa
:020000040005f5
:045e5000deffff0072
:020000040000fa
:020000040005f5
:045e5800ffffff0049
:00000001FF
