:020000040000fa
:080000000001040000000000f3
:020000040000fa
:0400080028020000ca
:020000040000fa
:04000c006a02000084
:020000040000fa
:04001000aa02000040
:020000040000fa
:04001400480200009e
:020000040000fa
:040018008a02000058
:020000040000fa
:04001c00ca02000014
:020000040000fa
:04002000ca02000010
:020000040000fa
:04002400ca0200000c
:020000040000fa
:04002800ca02000008
:020000040000fa
:04002c00ca02000004
:020000040000fa
:04003000ca02000000
:020000040000fa
:04003400ca020000fc
:020000040000fa
:04003800ca020000f8
:020000040000fa
:04003c00ca020000f4
:020000040000fa
:04004000ca020000f0
:020000040000fa
:04004400ca020000ec
:020000040000fa
:04004800ca020000e8
:020000040000fa
:04004c00ca020000e4
:020000040000fa
:04005000ca020000e0
:020000040000fa
:04005400ca020000dc
:020000040000fa
:04005800ca020000d8
:020000040000fa
:04005c00ca020000d4
:020000040000fa
:04006000ca020000d0
:020000040000fa
:04006400ca020000cc
:020000040000fa
:04006800ca020000c8
:020000040000fa
:04006c00ca020000c4
:020000040000fa
:04007000ca020000c0
:020000040000fa
:04007400ca020000bc
:020000040000fa
:04007800ca020000b8
:020000040000fa
:04007c00ca020000b4
:020000040000fa
:04008000ca020000b0
:020000040000fa
:04008400ca020000ac
:020000040000fa
:04008800ca020000a8
:020000040000fa
:04008c00ca020000a4
:020000040000fa
:04009000ca020000a0
:020000040000fa
:04009400ca0200009c
:020000040000fa
:04009800ca02000098
:020000040000fa
:04009c00ca02000094
:020000040000fa
:0400a000ca02000090
:020000040000fa
:0400a400ca0200008c
:020000040000fa
:0400a800ca02000088
:020000040000fa
:0400ac00ca02000084
:020000040000fa
:0400b000ca02000080
:020000040000fa
:0400b400ca0200007c
:020000040000fa
:0400b800ca02000078
:020000040000fa
:0400bc00ca02000074
:020000040000fa
:0400c000ca02000070
:020000040000fa
:0400c400ca0200006c
:020000040000fa
:0400c800ca02000068
:020000040000fa
:0400cc00ca02000064
:020000040000fa
:0400d000ca02000060
:020000040000fa
:0400d400ca0200005c
:020000040000fa
:0400d800ca02000058
:020000040000fa
:0400dc00ca02000054
:020000040000fa
:0400e000ca02000050
:020000040000fa
:0400e400ca0200004c
:020000040000fa
:0400e800ca02000048
:020000040000fa
:0400ec00ca02000044
:020000040000fa
:0400f000ca02000040
:020000040000fa
:0400f400ca0200003c
:020000040000fa
:0400f800ca02000038
:020000040000fa
:0400fc00ca02000034
:020000040000fa
:04010000ca0200002f
:020000040000fa
:04010400ca0200002b
:020000040000fa
:04010800ca02000027
:020000040000fa
:04010c00ca02000023
:020000040000fa
:04011000ca0200001f
:020000040000fa
:04011400ca0200001b
:020000040000fa
:04011800ca02000017
:020000040000fa
:04011c00ca02000013
:020000040000fa
:04012000ca0200000f
:020000040000fa
:04012400ca0200000b
:020000040000fa
:04012800ca02000007
:020000040000fa
:04012c00ca02000003
:020000040000fa
:04013000ca020000ff
:020000040000fa
:04013400ca020000fb
:020000040000fa
:04013800ca020000f7
:020000040000fa
:04013c00ca020000f3
:020000040000fa
:04014000ca020000ef
:020000040000fa
:04014400ca020000eb
:020000040000fa
:04014800ca020000e7
:020000040000fa
:04014c00ca020000e3
:020000040000fa
:04015000ca020000df
:020000040000fa
:04015400ca020000db
:020000040000fa
:04015800ca020000d7
:020000040000fa
:04015c00ca020000d3
:020000040000fa
:04016000ca020000cf
:020000040000fa
:04016400ca020000cb
:020000040000fa
:04016800ca020000c7
:020000040000fa
:04016c00ca020000c3
:020000040000fa
:04017000ca020000bf
:020000040000fa
:04017400ca020000bb
:020000040000fa
:04017800ca020000b7
:020000040000fa
:04017c00ca020000b3
:020000040000fa
:04018000ca020000af
:020000040000fa
:04018400ca020000ab
:020000040000fa
:04018800ca020000a7
:020000040000fa
:04018c00ca020000a3
:020000040000fa
:04019000ca0200009f
:020000040000fa
:04019400ca0200009b
:020000040000fa
:04019800ca02000097
:020000040000fa
:04019c00ca02000093
:020000040000fa
:0401a000ca0200008f
:020000040000fa
:0401a400ca0200008b
:020000040000fa
:0401a800ca02000087
:020000040000fa
:0401ac00ca02000083
:020000040000fa
:0401b000ca0200007f
:020000040000fa
:0401b400ca0200007b
:020000040000fa
:0401b800ca02000077
:020000040000fa
:0401bc00ca02000073
:020000040000fa
:0401c000ca0200006f
:020000040000fa
:0401c400ca0200006b
:020000040000fa
:0401c800ca02000067
:020000040000fa
:0401cc00ca02000063
:020000040000fa
:0401d000ca0200005f
:020000040000fa
:0401d400ca0200005b
:020000040000fa
:0401d800ca02000057
:020000040000fa
:0401dc00ca02000053
:020000040000fa
:0401e000ca0200004f
:020000040000fa
:0401e400ca0200004b
:020000040000fa
:0401e800ca02000047
:020000040000fa
:0401ec00ca02000043
:020000040000fa
:0401f000ca0200003f
:020000040000fa
:0401f400ca0200003b
:020000040000fa
:0401f800ca02000037
:020000040000fa
:0401fc00ca02000033
:020000040000fa
:10020000cfa220000e7f24000e0188000000000015
:10021000000020000000e000020032000001200089
:100220002002880014000700dc0007000000e00046
:1002300003003a002067210001002000020037007f
:100240000000200001002000810f7000010032003a
:1002500014000700000020000000e000020032004f
:100260000000020000000000e21602000000000092
:100270000040da000000fe004440a900a037200042
:100280000000e00003003200002020009001880000
:100290004440a800000006008a1f78008b1f7800e9
:1002a00000000600a1028800800478000000eb0036
:1002b0001f003700e284440054a0b4009905ba003e
:1002c000e284440054a0b4009906ba00e2844400d9
:1002d00054a0b4000006eb00476fde00fd07b2003b
:1002e000ae018800636ce10003003a00eaff0700fa
:1002f0000000eb000e003700606ce10008003a00df
:10030000004deb000a05e800020039003420ec0043
:100310000af0a0008b05e900f9ff3e000400370059
:100320006168e100010032000086eb000b0007006d
:1003300019c7ba001905ba000e04e00003003a001c
:100340000a00e000dbff3a0000000600fe07b200f2
:10035000ae0288008a047800f5ff37000cd0a300b5
:10036000e20f4d001c00390089027800354dba00bb
:100370000a05e800020039003420ec000af0a00071
:100380008b05e9000f003200254dba000a05e80090
:10039000020039003420ec000af0a0008b05e900cf
:1003a000080032000c00e0000600320015cdba0053
:1003b0000a05e800020039003420ec000af0a00031
:1003c0008b05e9008984e80054a0b4000b00e0002c
:1003d000e2ff3a00000006009902ba00055d7800cd
:1003e0008b05e900f7ff3200c82ade00055d7800c2
:1003f0008b05e900f3ff32000c00e000f1ff320052
:1004000019ddba00eeff370064110400000000009f
:10041000e40d040000000000fe0d040000000000d8
:100420001c0e0400000000003a0e04000000000052
:100430005c0e0400000000007e0e040000000000be
:10044000a00e040000000000ce0d0400000000001b
:100450003600f800809fbe00829fbe00849fbe00d1
:10046000869fbe000000fa008020a9000000eb007b
:10047000420a07000080fa004f03be004f02be0090
:100480004f01be004f00be003600f90000400600dc
:100490003600f800809fbe00829fbe00849fbe0091
:1004a000869fbe000000fa00390a07008040a900bc
:1004b00010002000310a07000080fa004f03be0040
:1004c0004f02be004f01be004f00be003600f900d3
:1004d000004006003600f800809fbe00829fbe00ec
:1004e000849fbe00869fbe000000fa008060a900c5
:1004f00020002000210a07000080fa004f03be0000
:100500004f02be004f01be004f00be003600f90092
:10051000004006003600f800809fbe00829fbe00ab
:10052000849fbe00869fbe000000fa008080a90064
:1005300030002000110a07000080fa004f03be00bf
:100540004f02be004f01be004f00be003600f90052
:10055000004006003600f800809fbe00829fbe006b
:10056000849fbe00869fbe000000fa008600a9009e
:1005700070002000010a07000080fa004f03be004f
:100580004f02be004f01be004f00be003600f90012
:10059000004006000040da000000fe0000000500f8
:020000040000fa
:1005a0005f5f000005080000000000000000000080
:1005b0000000000000fa00000000000000e0000061
:1005c00000e0000000280000fe280000fe280000d7
:1005d00024540000fe54000048c40000c81000006d
:1005e000264600006c9200006a0400000a00000029
:1005f00010e00000c000000000380000448200004d
:100600000000000082440000380000005438000060
:10061000fe38000054100000107c00001010000094
:10062000000000000e0c0000001000001010000080
:10063000101000000000000006060000000400008a
:1006400008100000204000007c8a000092a20000f8
:100650007c00000042fe0000020000004e920000fc
:10066000929200006284000082920000b2cc0000ee
:100670001828000048fe000008e40000a2a20000c4
:10068000a29c00003c520000929200008c8200006c
:100690008488000090e000006c92000092920000bc
:1006a0006c6200009292000094780000000000004c
:1006b0002800000000000000022c000000000000e4
:1006c00000100000284400008228000028280000b4
:1006d000282800000082000044280000104000008c
:1006e000809a0000906000007c820000ba9a0000ae
:1006f000723e000048880000483e0000fe92000064
:10070000929200006c7c0000828200008244000013
:10071000fe820000828200007cfe000092920000b7
:1007200092820000fe90000090900000807c00000b
:10073000828200008ace0000fe100000101000002f
:10074000fe00000082fe00008200000004020000a3
:1007500082fc000080fe000010280000448200009f
:10076000fe0200000202000002fe0000403800000d
:1007700040fe0000fe20000010080000fe7c00008b
:1007800082820000827c0000fe90000090900000b9
:10079000607c0000828a0000847a0000fe900000e5
:1007a000989400006264000092920000924c000055
:1007b000c0800000fe800000c0fc000002020000bb
:1007c00002fc0000f804000002040000f8fc000035
:1007d000021c000002fc0000c628000010280000d7
:1007e000c6c00000201e000020c00000869a000045
:1007f00092b20000c2000000fe820000828200006f
:100800004020000010080000040000008282000068
:1008100082fe000020400000804000002002000016
:10082000020200000202000000c00000e010000010
:10083000000400002a2a00001c020000fe14000030
:10084000222200001c1c00002222000022140000b2
:100850001c22000022140000fe1c00002a2a0000b6
:100860002a180000001000007e90000040300000b8
:100870004a4a0000523c0000fe1000002020000008
:100880001e00000022be0000020000000402000062
:1008900002bc000000fe000008140000220000005e
:1008a00000820000fe020000003e0000201e00004a
:1008b000201e00003e100000202000001e1c000032
:1008c00022220000221c00003e1800002424000008
:1008d0001818000024240000183e00003e100000fc
:1008e00020200000101200002a2a00002a24000004
:1008f00020200000fc220000243c00000202000036
:10090000043e00003804000002040000383c0000ef
:10091000020c0000023c0000221400000814000039
:10092000223200000a0a00000a3c000022260000d1
:100930002a32000022000000106c0000820000003b
:1009400000000000fe00000000000000826c0000bb
:100950001000000040800000402000004000000027
:10096000dff700005aff0000ff070000fa7f0000d9
:10097000fff70000bbf7000038ff00000000000098
:1009800059ff00001f0000005c89000045a1000025
:10099000d0dd0000f45c0000e07f000043d30000e5
:1009a000eafb0000bd640000dbff0000a7d80000e8
:1009b000ff070000110000005104000021bc0000ee
:1009c00055ad00002003000055ad0000adbd000096
:1009d000118800004553000060fc00009999000058
:1009e00000880000afec0000f18d0000f14900002c
:1009f000692a0000692a00007a0600001a900000a7
:100a0000b2f80000ff0500004d6b00004d6b0000c8
:100a10009f1c000004b10000deff00004424000021
:100a20001ff80000fbde0000dfff0000a0fe00005a
:100a300024dd00001084000000040000e5af000089
:100a400010840000fef7000056fb0000ebca000017
:100a500010480000feff000031f700003fe70000f3
:100a60009eff0000e07f0000d9ff0000dcae000028
:100a700010f40000ffe70000daff00009ad6000043
:100a8000729700009ad60000b8fd00000ffd00002c
:100a9000952500007f860000537400005374000009
:100aa0003bb60000fcff0000e007000066360000d7
:100ab0009cff00001ff80000008000007566000029
:100ac00019000000baba00009b9300008e3d0000a0
:100ad0005d7b0000d3070000994e0000b0c000000d
:100ae000ce180000fff700003cff000036ff0000ba
:100af000f5fe000010000000bcff000000840000b4
:100b0000646c000020fd000020fa00009adb000069
:100b100055ef0000d39f00007daf000092db000086
:100b20007aff0000d7fe000027cc000019fe00006d
:100b30001bdd00001cb700001080000000f8000062
:100b400071bc00005c430000228a00000efc000023
:100b50002cf500004a2c0000bdff000085a200001b
:100b600018c600007d860000d96a000012740000db
:100b700012740000dfff0000ef07000016440000c1
:100b8000b1d5000010040000fbdd000008fb0000f0
:100b90001a4700001dec0000f6f60000ffff000001
:100ba000bef70000e0ff0000669e0000ff070000a7
:100bb000e0ff0000ff03000080ff0000ff010000d5
:100bc00000ff0000ff01000000fe0000ff00000029
:100bd00000fc0000ff08000008f800007f1800007b
:100be00018f800003f3c00003cf000003f3e0000d1
:100bf0003ef000001f1e00001ef000000f1f00004e
:100c00001ff000008f0f00000ff100008f8f000019
:100c10008ff10000cfc70000c7f30000cfc3000072
:100c2000c3f70000ffc3000083ff0000ffc1000006
:100c300081ff0000ff80000001ff0000ff000000b6
:100c400000fe00007f00000000fe00007f000000aa
:100c500000fe0000ff01000080ff0000ff07000011
:100c6000e0ff000053680000656e00006b6100004b
:100c7000720000004c6100006200000020010000d2
:100c80000000000000000000200100000f00000034
:040c90000000000060
:020000040000fa
:100c94000600fa00000f7800110798002207980058
:100ca4001e007800804078002e00900001487800f3
:100cb4002e00900011c0b300614898002e009000ef
:100cc4009e0090001101be0022009800330098009d
:100cd4001e007800e30f50002f003200e30f500095
:100ce40005003e00e10f500015003200e10f5000f6
:100cf4001e003e0007003700e60f50003e003200a1
:100d0400e70f500048003200e50f50002e0032007b
:100d1400570037002e0090009e0090001102be0084
:100d24002400980035009800a10290004500980026
:100d34002e00900041de2000110098005000370082
:100d44002e0090009e0090001103be002600980023
:100d540037009800a1039000470098002e009000ef
:100d6400e1df200011009800450037002e009000bc
:100d74009e0090001101be002200980033009800ec
:100d8400a1019000430098002e009000c1e12000d2
:100d9400110098003a0037002e0090009e00900049
:100da4003102be002103be002400980035009800e3
:100db40046009800570098002e009000a1e3200000
:100dc400110098002e0037002e0090009e00900025
:100dd4003102be002103be002400980035009800b3
:100de40046009800570098002e009000c1e52000ae
:100df40011009800220037002e0090009e00900001
:100e04003102be002103be00240098003500980082
:100e140046009800570098002e009000e1e720005b
:100e24001100980016003700ae0090001e009000dc
:100e3400e4804000b0187800a0107800e4804000fe
:100e440064004000b0187800a0107800e4804000ee
:100e540064004000900878008180e8000080e80089
:100e64002e00900001ea20001100980004003700d1
:100e74002e009000e1dc200011009800000000002a
:100e84000080fa00000006000400fa0020479800e1
:100e9400314798002e4090008080fb003e40900037
:100ea4000000fb00008f4000002d28001040780057
:100eb4000080fb009e0f500003003d00002d280021
:100ec40010407800080037001e0078000000e000a1
:100ed40002003d000040eb0003003700be409000dc
:100ee4002e40900000c040000080fa000000060080
:100ef4000200fa00004f780011479800002d2800e6
:100f0400104078009e40780080cf500005003e00dd
:100f1400102d2800104078009e40900080cf500093
:100f2400020036000000eb0007003700f1c5b300f3
:100f34001e40780045040700f1c5b3001e40900030
:100f44002d040700850407000080fa000000060055
:100f54000400fa00004f7800114798001207980027
:100f6400002d2800104078009e40780080cf50006b
:100f74000e003e00102d2800104078009e40900086
:100f840080cf50000b003e00f1c5b3001e40780036
:100f94002e040700f1c5b3001e409000160407009c
:100fa4001e009000960407000300370000000000b4
:100fb40001003700000000000080fa000000060075
:100fc4000e00fa00004f9800114f9800224f98002d
:100fd400630798000e4890008080fb002e48900024
:100fe4000080fb0080805000002d28001040780015
:100ff4000080fb00808f500070003c001e48900071
:101004008080fb002e4890000080fb008080500010
:10101400102d2800104078000080fb00808f5000c5
:1010240068003c002e4890000004e00001003a00f3
:1010340010c0b300204f98002e48900080407800e4
:101044000e48900090ff0700204798002e4890001b
:101054000040ea00804078000e4890008aff0700b4
:10106400304798002e489000804078001e48900039
:1010740085ff0700404798002e4890000040ea0092
:10108400804078001e4890007fff0700504798007a
:10109400be409000014f7800430037000e48900096
:1010a4009e4f5000030039000e4890001e4050002f
:1010b400030037009e4078000e48900000c05000a6
:1010c40060479800de4090001147980031003700d7
:1010d4009e4890001e40900080cf500004003900cc
:1010e4009e4890001e40900000c05000030037004e
:1010f4009e4090001e48900000c050007047980029
:101104007e4090008080fb006e4090000080fb00d9
:10111400808040002e4890000080fb00808f5000ab
:10112400150034007e4090008080fb007e409000db
:101134000080fb000088b900000178006e40900038
:101144008080fb006e4090000080fb000088b900a6
:1011540000007800000141002e4890008080fb00d0
:101164002e4890000080fb000088b9000000780041
:10117400800f510004003c006e0190009e409000de
:101184001e40780072ff07001e4090000040e800f7
:10119400104798009e4090004e40900080cf500031
:1011a400cbff39001e4fe8002e4090009e4078008f
:1011b40080cf5000b9ff3900030037000000000061
:1011c40001003700000000000080fa000000060063
:1011d4000c00fa006047980071479800024f98008d
:1011e400530798000040eb00104798000040eb00c4
:1011f400204798000040eb00304798000000eb00c7
:10120400200798000e4890000004e00001003a0016
:1012140010c0b300004f98000e4890000040e80052
:10122400004f78000040eb00104798000040eb00ae
:10123400204798000000eb00200798006700370063
:101244001e4090000000fb00000040000000e80089
:10125400ae00900000804000200798001e409000df
:101264000040e800104798002e0090000000e000c5
:101274005a0035004c003700ae40900031479800ca
:1012840043003700ae4090007e40900080c0400094
:101294003e4190006e409000004041005e0190008d
:1012a4002bff07002e409000fe40900080c05000ad
:1012b4003e4190006e409000004041005e0190006d
:1012c40023ff0700ae4090007e40900080c04000a5
:1012d4003e4090006e419000004051005e0190003d
:1012e4001bff07002e409000fe40900080c050007d
:1012f4003e4090006e419000004051005e0190001d
:1013040013ff0700be4090007e40900080c0400064
:101314002e4190006e409000004041005e0190001c
:101324000bff07003e409000fe40900080c050003c
:101334002e4190006e409000004041005e019000fc
:1013440003ff0700be4090007e40900080c0400034
:101354002e4090006e419000004051005e019000cc
:10136400fbfe07003e409000fe40900080c050000d
:101374002e4090006e419000004051005e019000ac
:10138400f3fe07003e4090000040e800304798001c
:101394003e4090009e4f5000baff35002e40900012
:1013a4000040e80020479800ae4090001e409000a6
:1013b40080cf5000b0ff35009e00fb00e0ff2f00ff
:1013c4000088b900000078000000e800ae0090003a
:1013d40000804000200798001e4fe9001e40900046
:1013e4009e40780080cf500095ff3d000080fa00b9
:1013f400000006000a00fa00404798005147980090
:101404006247980073479800440798007e40900014
:101414000080fb000000d10000407800ee40900006
:1014240000c040006047980064003700ee40900020
:10143400014f78000040eb00104798000000eb00db
:1014440010079800560037009e4090005e409000c0
:1014540080c040001e4178004e4090000040410092
:101464004e019000bafe07001e409000de4090003e
:1014740080c050001e4178004e4090000040410062
:101484004e019000b2fe07009e4090005e40900026
:1014940080c040001e4078004e4190000040510042
:1014a4004e019000aafe07001e409000de4090000e
:1014b40080c050001e4078004e4190000040510012
:1014c4004e019000a2fe07009e4078005e4090000e
:1014d40080c040001e4190004e40900000404100fa
:1014e4004e0190009afe07001e407800de409000f6
:1014f40080c050001e4190004e40900000404100ca
:101504004e01900092fe07009e4078005e409000dd
:1015140080c040001e4090004e41900000405100a9
:101524004e0190008afe07001e407800de409000c5
:1015340080c050001e4090004e4190000040510079
:101544004e01900082fe07001e4090000000fb0048
:10155400000040000000e8009e0090000080400071
:10156400100798001e4090000040e80010479800c3
:101574001e0090000000e000090035009e00fb0002
:10158400e0ff2f000088b900000078000000e800a8
:101594009e00900000804000100798001e4fe90054
:1015a4001e4090009e40780080cf5000a6ff3d0072
:1015b4006e4090000040e900604798007e40900033
:1015c4000080fb000000ea004f00de0000407800cd
:1015d400fe4090008140e900714798000004e0005b
:1015e40092ff3a000080fa00000006000e00fa00a4
:1015f4006047980071479800024f9800134f980075
:10160400244f9800650798002e4890000004e000dd
:1016140001003a0010c0b300204f98008e4890009b
:101624006e40900000c05000304798009e489000e3
:101634007e40900000c0500040479800ce4090008b
:101644003e40900000c0500020479800fe409000ab
:1016540011479800ee409000014f78002c003700ad
:101664009e00fb00002d2800104078000080fb0045
:10167400808f500017003c001e4090008000fb004b
:10168400102d2800104078000080fb00808f50004f
:1016940010003c002e489000e14f500005003e0031
:1016a4009e4090001e4078006e01900028fe0700c6
:1016b400080037002e4890000080fb000000d10095
:1016c400004178009e4090001e407800ee0190009a
:1016d400bffe07002e4090000004e0000700350024
:1016e4001e4090000040e80010479800ae40900073
:1016f4003e40900000c0500020479800ae4090004b
:101704004e40900000c04000204798001e4fe80063
:101714009e00fb000e4890000080fb00808f50006c
:10172400cfff35000080fa00000006000800fa0030
:101734002047980031479800424798005347980043
:1017440034079800ce4090002e4090003f020700de
:10175400de4090003e40900027020700ae4090001b
:10176400014f780010003700be40900011479800e8
:10177400050037003e009000a10207001e409000c3
:101784000040e800104798001e4090008080fb0055
:101794005e4090000080fb000000e800808f500055
:1017a400f4ff35001e4fe8009e80fb004e40900081
:1017b4000080fb000000e800808f5000eaff350045
:1017c4000080fa00000006001000fa00004f9800a4
:1017d400114f9800224f9800334f9800444f9800bf
:1017e400750798004e4890000080fb0001fe2f0012
:1017f40080804000202d2800104078000080fb00ed
:101804000088b9000000780080007800402d28008e
:10181400008f40000000eb00100798003c003700e8
:101824001e00780090407800614798001e0fe80081
:10183400302d2800104078008080fb003e48900046
:101844000080fb000088b9000000780020079800a1
:10185400270037006e4090000080fb0061006000ac
:10186400004078000004e000180032002e009000d0
:10187400804078001e48900080c040003e489000a0
:1018840000c040008041e9001e00900080407800c4
:101894000e48900080c040002e48900000c04000d8
:1018a4000041e9002e009000804078001e4890001e
:1018b40080c040001e009000004278000e48900056
:1018c400004042007e02900098ff07006e409000a6
:1018d4000080fb000000d100604798003e48900063
:1018e4000080fb00ae0090000080500020079800ac
:1018f4002e0090000000e000d6ff3a002e48900031
:101904000080fb009e0090000080400010079800bb
:10191400202d2800104078008080fb002e48900085
:101924000080fb000088b900000078008000780087
:101934001e009000808f5000b9ff3e000080fa0026
:10194400000006000800fa00004f780011479800d4
:1019540022479800334798002407980035079800d9
:10196400150037002e00900010407800ae00900063
:101974008100e80021079800be0290000042780030
:10198400be4190002e4190009e4090001e40780081
:101994008dff0700202d280010407800ae409000f5
:1019a4008180fb000088b9000000780000407800c6
:1019b4001e404000004fe8002e00900010407800c8
:1019c4000004e000e7ff3a000080fa00000006008f
:1019d4001400fa00204f9800314f980062079800d5
:1019e400634f9800744f9800050f9800265798008d
:1019f40000c2b300604798006e4890000004e00005
:101a0400020032006e4890000100370010c0b3009d
:101a1400604f98007e4890000004e000020032000d
:101a24007e4890000100370010c0b300704f98004a
:101a34000040eb00004f7800510037000e08900082
:101a44001001be0012079800230798000e089000aa
:101a540064004000000f98001e407800fe4890008b
:101a64008180fb000088b900000078008040780085
:101a74003e48900000c04000704798000040eb00d2
:101a840010479800390037001e019000ae01900005
:101a940010002000010020000202780003017800f9
:101aa40080017800010078000302620000006100f8
:101ab4008000eb00c000dd00000020000001be003b
:101ac4006120b8000001710081817100e00f5100b4
:101ad400e08f59001c003a006e4090008080fb00ab
:101ae4001e4090000080fb00008050000040780001
:101af400ee4890008180fb000088b9000000780067
:101b0400804078002e48900000c04000004f9800ac
:101b1400fe4090007e48900000c040008040e900f4
:101b24000e4990006e489000004041000040e900da
:101b34006e0290008141780000417800fe409000e0
:101b44000e489000f9fe07001e009000ae009000c1
:101b54008100d1000080d30010079800210798006d
:101b64001e4090000040e800104798009e409000fe
:101b74006e40900080cf5000c3ff39001e4fe80034
:101b84002e5090009e40780080cf5000abff39006b
:101b94000080fa00000006000200fa00000f78003e
:101ba4001e007800200190001e007800f040900094
:101bb4001e00780060409000e5fc07000080fa00f9
:101bc400000006000200fa00000f78001e007800f2
:101bd400a00190001e007800004990001e007800cb
:101be400f04090001e0078006040900078fd0700ef
:101bf4000080fa00000006000200fa00000f7800de
:101c04001e007800200290001e0078009049900089
:101c14001e007800004990001e007800f0409000fb
:101c24001e00780060409000f2fd07000080fa007a
:101c3400000006000200fa00000f78001e00780081
:101c4400200290001e007800904990001e00780049
:101c5400004990001e007800f04090001e007800bb
:101c640060409000b1fe07000080fa00000006000a
:101c74000200fa00000f78001e007800a002900015
:101c84001e007800004a90001e007800a0499000d1
:101c94001e007800104990001e007800f04090006b
:101ca4001e0078006040900050fe07000080fa009b
:101cb400000006000200fa00000f78001e00780001
:101cc400a00290001e007800204a90001e007800b8
:101cd400904990001e007800004990001e00780092
:101ce400f04090001e00780060409000b6fe0700af
:101cf4000080fa00000006000200fa00000f7800dd
:101d04001e007800a00290001e007800500290008f
:101d14001e007800904990001e0078000049900051
:101d24001e007800f04090001e0078006040900093
:101d340004ff07000080fa00000006000200fa0019
:101d4400000f78001e007800404b90001e007800c1
:101d5400d00290001e007800104a90001e00780007
:101d6400804990001e007800200190001e00780039
:101d7400f04090001e0078006040900014ff0700bf
:101d84000080fa00000006000800fa000001780054
:101d9400310798003e0090004800de00004f7800b4
:101da4003e009000104798001e80fb004300de00b8
:101db40000407800204798001e80fb006700600008
:101dc4004300dd00804078001e4090000080fb004e
:101dd4004500de000040780000c0700030479800e5
:101de4001e4090007f406000404798000e80e8004d
:101df40082007800904878008100e8000000e80044
:101e0400904878008100e8000000e80090487800dd
:101e14008100e8000000e800020078000080fa0079
:101e2400000006000600fa00204798003147980099
:101e3400424798002e4090007f4060002047980061
:101e44003e409000f043b200304798004e4090006e
:101e54007f406000404798002e4090000080fb00c7
:101e64004300dd00804078003e4090000080fb008d
:101e74004300de000040780000c07000004f78008e
:101e84003e4090000080fb004500dd00804078006b
:101e94004e40900000c07000104798001e80fb0068
:101ea400c800dd001e4090000080fb0001007000af
:101eb4000080fa00000006000200fa00000f78001b
:101ec400c00520009e007800808f5000040032007e
:101ed400d00520009e007800808f500009003a0051
:101ee400c00520009e007800808f500002003a0058
:101ef40010c0b3000100370020c0b30004e8b700ed
:101f0400010037000468ef000080fa0000000600ba
:101f14000000fa000468ef000080fa0000000600e8
:101f24000200fa00004f780011479800c70007002c
:101f34000004a2000004e000020032000080eb0074
:101f44000c0037001e40780067020700004f78003d
:101f54001e40900064020700104798004e020700dc
:101f64001e80fb00c800dd001e4090000080fb00c6
:101f7400010070000080fa00000006000600fa006c
:101f8400000f78001107980042479800af0007003f
:101f94000004a2000004e00014003a008f26a90007
:101fa4008e66a9001e007800004078004e020700eb
:101fb4004e4090000004e000070032008e66a80046
:101fc4004e4090000080fb00800078001e009000ce
:101fd4006b0207008e66a9008f26a8002e02070058
:101fe4001e007800b4ff0700010037000000000065
:101ff4000080fa00000006000400fa002047980060
:10200400314798002e409000f1c5b300814f500035
:1020140001003600f0c5b300004f78003e40900048
:10202400f1c5b300814f500001003600f0c5b30084
:102034001047980022c0b3008e007800500720009b
:10204400ceff07000080fa00000006000400fa003a
:1020540020479800314798002e409000f1c5b30006
:10206400814f500001003600f0c5b30020479800ae
:102074003e409000f1c5b300814f5000010036008e
:10208400f0c5b300304798002e40900070404000e7
:10209400004f78003e409000704040001047980088
:1020a40022c0b3008e00780050012000b3ff070067
:1020b4000080fa00000006000200fa00004f7800d9
:1020c4001e4078000004e00002003200e00a200014
:1020d40001003700f00a20000041eb008000eb0013
:1020e400a6ff07000080fa00000006000200fa00c4
:1020f40020c3b300004f780012c0b3008e007800f4
:10210400000a20009dff070000c2b300004f7800c2
:1021140012c0b3008e007800100a200097ff070059
:102124000080fa00000006000000fa000041eb0005
:102134008000eb00d005200090ff07008f26a90047
:102144008e66a8000080fa00000006000000fa0075
:102154001a0007000080fa00000006000000fa00e0
:1021640004c8bf00e24f500001003200eeff070038
:1021740004c8bf00e24f5000020032000080eb00b0
:102184000300370080c0eb0000c0eb0064ff0700d1
:102194000080fa00000006000000fa000041eb0095
:1021a4008000eb00c005200074ff07008f26a90003
:1021b4008e66a8000080fa00000006000000fa0005
:1021c4008f26a8008e66a90051ff07000080fa0040
:1021d400000006000400fa00004f78001147980040
:1021e400224798002e4190009e4090001e407800a7
:1021f4000cff0700020007000080fa000000060040
:102204000200fa00000f780004c8bf00e14f50003c
:1022140001003200e0ff070004c8bf00e14f500096
:1022240007003a001e007800804078001e00780005
:102234004800de000040780039ff07000100370045
:10224400000000000080fa00000006000000fa0010
:10225400950107000080fa00000006000000fa0063
:102264008f06a90067a6a8008e26a90010002000ea
:102274004d02070067a6a900200020005b020700aa
:1022840067a6a8008f06a8001000200046020700d9
:102294000040eb0088ff0700800c2000420207008a
:1022a400f1c5b3000040eb0068ff0700f1c5b300bf
:1022b4000040eb0050ff07008cff07000080fa008d
:1022c400000006000200fa00000f78000080fa0007
:1022d400000006000200fa000040eb00004f780006
:1022e4000d0037001e80fb00c400dd00a08120002b
:1022f400008040008040eb00014878001e80fb0015
:10230400c400dd00e0802000008040004116210070
:10231400010878001e4fe8001e407800ff4f50006f
:10232400f0ff36000080fa00000006000400fa0006
:1023340020479800ae409000014f78000e0037000f
:102344001e80fb009e80fb008100e8004401dd004c
:10235400c0802000000041004409dd00c18020004d
:102364008100410007000900311878000001b10024
:102374000101b1001e4fe8001e407800fe4f5000de
:10238400efff3600a0a020008040eb000148780059
:102394000080fa00000006000200fa00004f7800f6
:1023a4001e40780001c2b300814f50000100360086
:1023b40000c2b300004f78001e80fb00c400dd00a3
:1023c400c0802000008040000080fa000000060069
:1023d4000a00fa0040479800310798004207980025
:1023e4004e409000ff4f500001003600f0c1b30092
:1023f40040479800f0c1b300004f78000e0037004a
:102404001e80fb009e80fb008100e9004401dd008a
:10241400c0802000000041004409dd00c18020008c
:102424008100410007000900311878000001b10063
:102434000101b1001e4fe9004e4090009e4078001b
:1024440080cf5000030036001e4078000004e000f6
:10245400ebff3a004e4090000080fb00c400dd001a
:10246400c080200000804000100798001e019000ea
:10247400ce0090003e00900005fa07000080fa00ac
:10248400000006000200fa00004f78001e80fb00e6
:102494004400dd008080e800c0802000008040000f
:1024a400900078001e80fb004401dd00c080200005
:1024b40000004100010001000080fa000000060055
:1024c4000200fa00004f78009e4078000040eb00c4
:1024d400090007000080fa00000006000200fa006c
:1024e400004f780001c2b3001e40780002000700cc
:1024f4000080fa00000006000400fa00204798005b
:10250400314798003e40900001c2b300814f500013
:102514000100360000c2b30030479800ae4090007e
:10252400014f7800140037001e80fb004400dd00da
:10253400ee004000c0802000008040001040780081
:102544000004e0000b0032001e80fb004400dd00ac
:102554008080e800c0802000008040009000780067
:102564001e80fb004401dd00c0802000000041000b
:10257400010001001e4fe8003e4090009e4078009c
:1025840080cf5000e8ff39000080fa000000060008
:102594000800fa0040479800310798004e40900028
:1025a4007dff0700000f78001e007800a000900057
:1025b400110798001e007800be00900021009800ca
:1025c4001e007800900090001e00780001000100b9
:1025d4001e0078009e009000210098000080fa0000
:1025e400000006000400fa00100798000040eb0009
:1025f400004f78000c0037001e80fb004400dd0013
:10260400ee004000c08020000080400010407800b0
:102614000004e000030032009e0090001e40780099
:10262400dbff07001e4fe8001e407800ff4f5000fc
:10263400f1ff36000080fa00000006000000fa00f6
:1026440001c2b3000040eb00abff07000080fa00ba
:10265400000006000200fa0001c6b3000040eb00cf
:102664007afe070001c6b3000040eb0062fe0700db
:102674000040eb00004f78000d0037000040eb00f5
:10268400104798000500370010408000dcfe07006a
:102694001e4090000040e800104798009e409000c3
:1026a400f0c5b30080cf5000f7ff36001e4fe8009e
:1026b400f0c5b3009e40780080cf5000efff360095
:1026c4000080fa00000006000200fa00000f780003
:1026d4009e00780011408800deff07000080fa00a9
:1026e400000006000a00fa00702e8400f6ff0700be
:1026f400f02c8400000f7800e0c0b300204798005d
:1027040090c1b3003047980020c0b3004047980000
:1027140020c0b30050479800605d2800300798003f
:1027240070c1b300004f98000e01780071002000c2
:102734000040eb0026ff0700a0c0b300404798000c
:10274400a0c0b30020479800a0c0b3003047980051
:102754000e0178008000eb0010c0b3001cff0700de
:1027640010268400000f780050c5b300304798004d
:102774000e0178008000eb0020c0b30014ff0700b6
:10278400902e8400000f780050c5b30020479800b5
:102794000e0178008000eb0030c0b3000cff07008e
:1027a400e0288400000f7800a0c0b30030479800f0
:1027b4000e0178008000eb0040c0b30004ff070066
:1027c4009eff070010c0b30000e8b7000080fa00c5
:1027d400000006000400fa00f0c0b300004f7800c7
:1027e40000c8bf000004a2000004e00001003200a1
:1027f400bcff0700f12584002063280081027800d3
:102804000002780023c0b30022c0b3008040eb0074
:10281400a0c0b3004bfc070011278400a06328006c
:10282400810278000002780023c0b30022c0b30004
:10283400e1c4b300e0c1b30042fc07000040eb0078
:10284400d5fe070010079800104080008000780033
:102854000040eb004eff070006c8bf009e4040004a
:102864001e0090006140980006c8bf00644040000c
:1028740006e8b70006c8bf00f84f50000200340055
:1028840080ceb30006e8b7000040eb00fdfe070071
:102894000080fa00000006000000fa00f5e3a90039
:1028a4000080fa00000006000000fa00a11f80006a
:1028b40000002800008060000000e00007003a00eb
:1028c40000122000a01f88000424ef0077e6a9006e
:1028d400f5e3a80010c0b300010037000040eb008e
:1028e4000080fa00000006000200fa00004f7800a1
:1028f4001e80fb000020880000000000e01f800014
:10290400610060000000e000fcff32000020800055
:10291400004078000080fa00000006000600fa007b
:1029240010079800210798009e009000010f78007e
:10293400060037001e00780010407800eaff070008
:102944009e007800804878001e0fe8002e0090005a
:1029540000f0a7000000ea000000ea004f00de00db
:1029640000407800ae0090008100e9002107980043
:102974000004e000efff3a000080fa0000000600c7
:102984000600fa0010079800210798009e009000a6
:10299400010f7800040037001e0078001040780012
:1029a4001e0fe800d0ff07002e00900000f0a700e3
:1029b4000000ea000000ea004f00de00004078005a
:1029c400ae0090008100e900210798000004e000b7
:1029d400f1ff3a000080fa00000006000600fa0049
:1029e40010079800210798009e009000010f7800be
:1029f400050037000040eb00bbff07009e00780095
:102a0400804878001e0fe8002e00900000f0a70018
:102a14000000ea000000ea004f00de0000407800f9
:102a2400ae0090008100e900210798000004e00056
:102a3400f0ff3a000080fa00000006000200fa00ed
:102a4400004f78001e80fb00002088000080fa0000
:102a5400000006000000fa0000208000004078001a
:102a64000080fa00000006000000fa0071048000f3
:102a740000402000008060000000e00006003200fa
:102a8400404080000000e00002003200404080002e
:102a9400000001008f40a9000080fa000000060039
:102aa4000200fa00000f78009e0078004140880080
:102ab4000080fa00000006000000fa006626ef001d
:102ac4007a26ef008e26ef0070f925001033880077
:102ad400f0ff2300b0338800500f200050348800ea
:102ae4007426ef008826ef009c26ef007226ef0084
:102af4008626ef009a26ef006826ef007c26ef007a
:102b04009026ef007000200050338800c020210080
:102b1400f0338800500020009034880001088000c1
:102b2400f00b20000081600060042000710520008b
:102b34000310200080497800814978008249780098
:102b4400113f800000f82f00008060007000b30087
:102b5400103f8800113f8000f00f280000806000c3
:102b640000b0a000103f8800c13d800000fc2f0091
:102b740000806000d000b300c03d880000088000e1
:102b8400000178000260a0006004200071052000ac
:102b94000310200080497800814978008249780038
:102ba4000080fa00000006000200fa00000f78001e
:102bb4000300370000fa2000010020006000070035
:102bc4001e00780000f0a7000000ea000000ea0000
:102bd4004f00de00004078001e0fe9000004e00012
:102be400f4ff3a000080fa00000006000200fa0038
:102bf400000f7800050037000008200001002000c5
:102c04004f00070001fe2f001e8f40001e007800b9
:102c1400ff0f5000f8ff3e00030037004000200083
:102c240001002000460007001e00780000f0a70005
:102c34000000ea000000ea004f00de0000407800d7
:102c44001e0fe9000004e000f4ff3a000080fa00df
:102c5400000006000000fa000000230010088800ad
:102c64000621ef006821ef006a21ef000821ef0040
:102c740000702000500888000c21ef000e21ef00a6
:102c84007821ef007a21ef007c21ef007e21ef0014
:102c94008021ef008221ef008421ef008621ef00e4
:102ca4000001eb0080072000a10920001310200080
:102cb4008049780081497800824978000001eb005e
:102cc4006004200071052000031020008049780072
:102cd40081497800824978000080fa0000000600eb
:020000040000fa
:102ce400040800000200000080000000000800004a
:102cf400040000008000000006080000020000003c
:102d040082000000e80000000c080000000200003f
:102d1400800000000808000002000000800000009d
:102d24000c0a000020000000800000000a080000d7
:102d34000200000082000000ffff0000000000000d
:020000040000fa
:102d4400f03fb1000180b10006003500ee03090038
:102d540000000000403fb1000180b100fbff3d00d6
:102d64001000b000203fb0000200350000800900d0
:082d7400000000000000060051
:020000040000fa
:102d7c000200fa00000f78009e0078005140880095
:102d8c00ffff37000000fa00c0a020008007780089
:102d9c0040a22000000188000080fa00000006001c
:102dac000000fa0042ff0700a8ff070029fd0700fa
:102dbc000080fa00000006000000fa00f8ff07008f
:082dcc0082fe0700feff370044
:020000040000fa
:020000040005f5
:045e0000ffffff00a1
:020000040000fa
:020000040005f5
:045e2000ffffff0081
:020000040000fa
:020000040005f5
:045e300078ffff00f8
:020000040000fa
:020000040005f5
:045e38004bffff001d
:020000040000fa
:020000040005f5
:045e40009fffff00c1
:020000040000fa
:020000040005f5
:045e4800ffffff0059
:020000040000fa
:020000040005f5
:045e5000deffff0072
:020000040000fa
:020000040005f5
:045e5800ffffff0049
:00000001FF
