:020000040000fa
:080000000001040000000000f3
:020000040000fa
:04000800ac02000046
:020000040000fa
:04000c00ac02000042
:020000040000fa
:04001000ac0200003e
:020000040000fa
:04001400ac0200003a
:020000040000fa
:04001800ac02000036
:020000040000fa
:04001c00ac02000032
:020000040000fa
:04002000ac0200002e
:020000040000fa
:04002400ac0200002a
:020000040000fa
:04002800ac02000026
:020000040000fa
:04002c00ac02000022
:020000040000fa
:04003000ac0200001e
:020000040000fa
:04003400ac0200001a
:020000040000fa
:04003800ac02000016
:020000040000fa
:04003c00ac02000012
:020000040000fa
:04004000ac0200000e
:020000040000fa
:04004400ac0200000a
:020000040000fa
:0400480008020000aa
:020000040000fa
:04004c00ac02000002
:020000040000fa
:04005000ac020000fe
:020000040000fa
:04005400ac020000fa
:020000040000fa
:04005800ac020000f6
:020000040000fa
:04005c00ac020000f2
:020000040000fa
:04006000ac020000ee
:020000040000fa
:04006400ac020000ea
:020000040000fa
:04006800ac020000e6
:020000040000fa
:04006c00ac020000e2
:020000040000fa
:04007000ac020000de
:020000040000fa
:04007400ac020000da
:020000040000fa
:04007800ac020000d6
:020000040000fa
:04007c00ac020000d2
:020000040000fa
:04008000ac020000ce
:020000040000fa
:04008400ac020000ca
:020000040000fa
:04008800ac020000c6
:020000040000fa
:04008c00ac020000c2
:020000040000fa
:04009000ac020000be
:020000040000fa
:04009400ac020000ba
:020000040000fa
:04009800ac020000b6
:020000040000fa
:04009c00ac020000b2
:020000040000fa
:0400a000ac020000ae
:020000040000fa
:0400a400ac020000aa
:020000040000fa
:0400a800ac020000a6
:020000040000fa
:0400ac00ac020000a2
:020000040000fa
:0400b000ac0200009e
:020000040000fa
:0400b400ac0200009a
:020000040000fa
:0400b800ac02000096
:020000040000fa
:0400bc00ac02000092
:020000040000fa
:0400c000ac0200008e
:020000040000fa
:0400c400ac0200008a
:020000040000fa
:0400c800ac02000086
:020000040000fa
:0400cc00ac02000082
:020000040000fa
:0400d000ac0200007e
:020000040000fa
:0400d400ac0200007a
:020000040000fa
:0400d800ac02000076
:020000040000fa
:0400dc00ac02000072
:020000040000fa
:0400e000ac0200006e
:020000040000fa
:0400e400ac0200006a
:020000040000fa
:0400e800ac02000066
:020000040000fa
:0400ec00ac02000062
:020000040000fa
:0400f000ac0200005e
:020000040000fa
:0400f400ac0200005a
:020000040000fa
:0400f800ac02000056
:020000040000fa
:0400fc00ac02000052
:020000040000fa
:04010000ac0200004d
:020000040000fa
:04010400ac02000049
:020000040000fa
:04010800ac02000045
:020000040000fa
:04010c00ac02000041
:020000040000fa
:04011000ac0200003d
:020000040000fa
:04011400ac02000039
:020000040000fa
:04011800ac02000035
:020000040000fa
:04011c00ac02000031
:020000040000fa
:04012000ac0200002d
:020000040000fa
:04012400ac02000029
:020000040000fa
:04012800ac02000025
:020000040000fa
:04012c00ac02000021
:020000040000fa
:04013000ac0200001d
:020000040000fa
:04013400ac02000019
:020000040000fa
:04013800ac02000015
:020000040000fa
:04013c00ac02000011
:020000040000fa
:04014000ac0200000d
:020000040000fa
:04014400ac02000009
:020000040000fa
:04014800ac02000005
:020000040000fa
:04014c00ac02000001
:020000040000fa
:04015000ac020000fd
:020000040000fa
:04015400ac020000f9
:020000040000fa
:04015800ac020000f5
:020000040000fa
:04015c00ac020000f1
:020000040000fa
:04016000ac020000ed
:020000040000fa
:04016400ac020000e9
:020000040000fa
:04016800ac020000e5
:020000040000fa
:04016c00ac020000e1
:020000040000fa
:04017000ac020000dd
:020000040000fa
:04017400ac020000d9
:020000040000fa
:04017800ac020000d5
:020000040000fa
:04017c00ac020000d1
:020000040000fa
:04018000ac020000cd
:020000040000fa
:04018400ac020000c9
:020000040000fa
:04018800ac020000c5
:020000040000fa
:04018c00ac020000c1
:020000040000fa
:04019000ac020000bd
:020000040000fa
:04019400ac020000b9
:020000040000fa
:04019800ac020000b5
:020000040000fa
:04019c00ac020000b1
:020000040000fa
:0401a000ac020000ad
:020000040000fa
:0401a400ac020000a9
:020000040000fa
:0401a800ac020000a5
:020000040000fa
:0401ac00ac020000a1
:020000040000fa
:0401b000ac0200009d
:020000040000fa
:0401b400ac02000099
:020000040000fa
:0401b800ac02000095
:020000040000fa
:0401bc00ac02000091
:020000040000fa
:0401c000ac0200008d
:020000040000fa
:0401c400ac02000089
:020000040000fa
:0401c800ac02000085
:020000040000fa
:0401cc00ac02000081
:020000040000fa
:0401d000ac0200007d
:020000040000fa
:0401d400ac02000079
:020000040000fa
:0401d800ac02000075
:020000040000fa
:0401dc00ac02000071
:020000040000fa
:0401e000ac0200006d
:020000040000fa
:0401e400ac02000069
:020000040000fa
:0401e800ac02000065
:020000040000fa
:0401ec00ac02000061
:020000040000fa
:0401f000ac0200005d
:020000040000fa
:0401f400ac02000059
:020000040000fa
:0401f800ac02000055
:020000040000fa
:0401fc00ac02000051
:020000040000fa
:10020000ef9620000e7f24000e0188000000000001
:10021000000020000000e000020032000001200089
:100220002002880014000700d70007000000e0004b
:1002300003003a00209c200001002000020037004b
:100240000000200001002000810f7000010032003a
:1002500014000700000020000000e000020032004f
:100260000000020000000000e405020000000000a1
:100270000040da000000fe004440a90020002000f9
:100280000000e00003003200100020009001880010
:100290004440a800000006008a1f78008b1f7800e9
:1002a00000000600a1028800800478000000eb0036
:1002b0001f003700e284440054a0b4009905ba003e
:1002c000e284440054a0b4009906ba00e2844400d9
:1002d00054a0b4000006eb00476fde00fd07b2003b
:1002e000ae018800636ce10003003a00eaff0700fa
:1002f0000000eb000e003700606ce10008003a00df
:10030000004deb000a05e800020039003420ec0043
:100310000af0a0008b05e900f9ff3e000400370059
:100320006168e100010032000086eb000b0007006d
:1003300019c7ba001905ba000e04e00003003a001c
:100340000a00e000dbff3a0000000600fe07b200f2
:10035000ae0288008a047800f5ff37000cd0a300b5
:10036000e20f4d001c00390089027800354dba00bb
:100370000a05e800020039003420ec000af0a00071
:100380008b05e9000f003200254dba000a05e80090
:10039000020039003420ec000af0a0008b05e900cf
:1003a000080032000c00e0000600320015cdba0053
:1003b0000a05e800020039003420ec000af0a00031
:1003c0008b05e9008984e80054a0b4000b00e0002c
:1003d000e2ff3a00000006009902ba00055d7800cd
:1003e0008b05e900f7ff3200c82ade00055d7800c2
:1003f0008b05e900f3ff32000c00e000f1ff320052
:1004000019ddba00eeff37007a0604000000000094
:100410003600f800809fbe00829fbe00849fbe0011
:10042000869fbe003200f8003400f8001000200063
:10043000a001880010002000900188000200fa004e
:100440000040eb00004f7800360037001e80fb00b4
:100450006a00b90080007800a09020000080400071
:10046000100078000000e0002d0032001e81fb002b
:100470006a10b90000007800e6004000a09020005b
:10048000008040001000be0061004000e080480095
:100490006a11b900820178000291200002814100b6
:1004a0000089be001e80fb006a00b90000007800d1
:1004b000e6004000a0902000008040001001be0037
:1004c0001e80fb006a00b900000078008080e80010
:1004d000a0902000008040001000be00800f51005e
:1004e000818f59000e003a001e80fb006a00b9009f
:1004f00080007800a090200000804000100078006c
:10050000000001001e80fb006a00b9008000780036
:1005100000912000008140006000b8000089be000a
:100520001e4fe8001e407800e94f5000c7ff36001c
:100530008900a9000080fa003400f9003200f900b7
:100540004f03be004f02be004f01be004f00be0071
:100550003600f900004006000040da000000fe000e
:100560000600fa00000f7800110798002207980093
:100570001e009000ae009000f50207002e009000d3
:100580000080fa00000006000000050080017800ed
:1005900002003700815978000201e9000200e00002
:0805a000fcff3a000000060018
:020000040000fa
:1005a8000200fa00000f78001e007800e20f5000e9
:1005b80010003200e20f500005003e000000e0008d
:1005c80014003200e10f500008003200120037001a
:1005d800e40f50000d003200e40f5000070039000e
:1005e800e50f5000070032000b0037006606a80030
:1005f800090037006626a800070037008ee6a80025
:10060800050037006706a800030037006726a80022
:1006180001003700000000000080fa00000006001a
:100628000200fa00000f78001e007800e20f500068
:1006380010003200e20f500005003e000000e0000c
:1006480014003200e10f5000080032001200370099
:10065800e40f50000d003200e40f5000070039008d
:10066800e50f5000070032000b0037006606a900ae
:10067800090037006626a900070037008ee6a900a2
:10068800050037006706a900030037006726a900a0
:1006980001003700000000000080fa00000006009a
:1006a8000200fa00000f78001e007800e20f5000e8
:1006b8001a003200e20f500005003e000000e00082
:1006c8004a003200e10f50000800320048003700ad
:1006d800e40f500038003200e40f50001c003900cd
:1006e800e50f50002700320041003700303380000a
:1006f80000407800614060000004a2006140600092
:100708000080fb0061006000313380000100a1001f
:100718000100700030338800350037003033800026
:100728000000d100614060000004a2006140600048
:100738000080fb0061006000000040003133800051
:100748000110a10001007000303388002800370034
:10075800703480004700de00614060000004a200a1
:10076800614060000080fb00610060004700dd0020
:10077800713480000170a10001007000703488009d
:100788001b003700303380004800de006140600005
:100798000004a200614060000080fb00610060006e
:1007a8004800dd00313380000180a10001007000a5
:1007b800303388000e003700303380004900de00f7
:1007c800614060000004a200614060000080fb00fe
:1007d800610060004900dd00313380000190a10014
:1007e800010070003033880001003700000000006d
:1007f8000080fa00000006000200fa00000f7800ee
:100808001e007800e20f500016003200e20f500080
:1008180005003e000000e00035003200e10f500006
:100828000800320034003700e40f5000270032007f
:10083800e40f500013003900e50f50001a00320091
:100848002d003700303380006100600000f0a70001
:100858000000ea000000ea004f00de0000407800d7
:1008680026003700303380006200600000f0a700e7
:100878000000ea000000ea004f00de0000407800b7
:100888001e003700713480000008200000806000de
:1008980000f0a7000000ea000000ea004f00de00b8
:1008a8000040780015003700313380000010200028
:1008b8000080600000f0a7000000ea000000ea00e5
:1008c8004f00de00004078000c0037003133800014
:1008d800002020000080600000f0a7000000ea006f
:1008e8000000ea004f00de000040780003003700f7
:1008f8000040eb00010037000040eb000080fa00e8
:10090800000006000200fa00000f78001e007800c0
:10091800e20f500010003200e20f500005003e00c8
:100928000000e00014003200e10f5000080032001f
:1009380012003700e40f50000d003200e40f5000a1
:1009480007003900e50f5000070032000b003700a0
:100958006206a900090037006226a90007003700cf
:100968008ae6a900050037006306a90003003700de
:100978006326a90001003700000000000080fa008b
:10098800000006000400fa00100798001e009000fe
:10099800e80f50000b003a001e00900010000700fe
:1009a800d1cc2c000100b8004308de00004f7800cd
:1009b80040c6b3009e40780080cf500003003e0040
:1009c8000400370000c0eb000300370040c6b30046
:1009d800004f78001e4078000080fa0000000600f2
:1009e8000400fa00100798001e009000e80f50005d
:1009f80006003a009e009000613a88004627a80049
:100a08000000eb00000f7800030037000080eb00c7
:100a1800140037001e0fe800703e20009e0078008a
:100a2800808f5000fbff36004627a9000000eb002e
:100a3800000f7800010037001e0fe800703e20000c
:100a48009e007800808f5000fbff360000000000f9
:100a5800303a8000610060000000e000fcff3200d6
:100a6800903880000080fa00000006000200fa00ba
:100a7800000f78001e007800e80f500003003a00cd
:100a88009206a80010c0b300010037000040eb0038
:100a98000080fa00000006000200fa00000f78004b
:100aa8001e0078000000e0001c003a00413a800077
:100ab800f0ff230000806000403a880049a7a900a1
:100ac80000c0eb004ae7b700313a8000f0f02f0091
:100ad80000806000303a8800513a8000f00f2e0004
:100ae8000080600000c0a000503a8800313a8000c1
:100af800f0cf2f0000806000303a8800413a800033
:100b080030f82f0000806000403a88004747a9006d
:100b180047e7a80010c0b300270037001e00780080
:100b2800e10f500023003a00313a8000f0f02f0026
:100b3800808060000007200001007000303a8800c3
:100b48004647a800413a8000f0ff2300008060007b
:100b5800403a880049a7a900413a800030f82f00a0
:100b680000806000403a88004947a9004807a9006a
:100b7800f0c2b3004ae7b700513a8000f00f2e00e8
:100b8800808060000030200001007000503a88002a
:100b980099a0a8004747a90047e7a80080002000bf
:100ba800603a880089a0a9005027ef0010c0b30060
:100bb800010037000040eb000080fa00000006004a
:100bc8000800fa0000042000000f7800000220004e
:100bd8001007980000012000200798000028ef0067
:100be80010002000d401070020002000d2010700d7
:100bf8005000200043ff07004000200041ff07008d
:100c080010002000660007000000eb00a2ff0700ac
:100c18008000200095ff07000000eb00220107007c
:100c28001200200003002000a0672000ea0007004f
:100c3800800020006aff070030079800004080000d
:100c4800e10f500008003200e10f500003003900a6
:100c5800e20f50000700320009003700be00900084
:100c6800010f780006003700be00900011079800b9
:100c780003003700be009000210798000000000024
:100c8800ae0190001e0190009e0078001000200028
:100c9800a6000700e6ff37000000fa0000408000c9
:100ca800e10f500008003200e10f50000300390046
:100cb800e20f500007003200080037001000200043
:100cc800004088000700370020002000004088000e
:100cd800040037000028ef00020037000028ef006a
:100ce800000000000080fa00000006000000fa0082
:100cf800100020006f0107000004e0000900320026
:100d08005000200026fe0700104080000000e00090
:100d180001003a00e0ff0700400120001040880071
:100d280008003700500020003dfe070010408000fa
:100d38000000e00003003200104080000000e900dd
:100d480010408800200020005a0107000004e0003d
:100d5800090032004000200011fe070020408000fa
:100d68000000e00001003a00cbff0700400120002e
:100d780020408800080037004000200028fe0700b7
:100d8800204080000000e000030032002040800086
:100d98000000e900204088000080fa0000000600fa
:100da8000200fa00000f78001e007800e10f5000e2
:100db80046003a006206a9006226a9008ae6a90050
:100dc800713f800000f82f0000806000d000b30061
:100dd800703f8800713f8000f00f2800808060001d
:100de80000e0200001007000703f8800513f800043
:100df800f00f28008080600000f0200001007000e3
:100e0800503f8800f03f2000a0118800901180001a
:100e1800f001b3009011880032e2a900811180002e
:100e280000c021000100700080118800811180003d
:100e380080ff2f00008060006000b30080118800f0
:100e480032c2a800f03f2000f0118800e0118000b5
:100e5800f001b300e01188003ce2a900d111800044
:100e680000c0210001007000d0118800d11180005d
:100e780080ff2f00008060006000b300d011880060
:100e88003cc2a800f03f20004012880030128000c9
:100e9800f001b3003012880046e2a9002112800058
:100ea80000c021000100700020128800211280007b
:100eb80080ff2f00008060006000b30020128800cf
:100ec80046c2a80000000000010037000000000032
:100ed8000080fa00000006000400fa00000f780005
:100ee800110798009e009000b11188000080fa0058
:100ef800000006000400fa00000f780011079800af
:100f08009e009000011288000080fa000000060090
:100f18000400fa00000f7800110798009e00900066
:100f2800511288000080fa00000006000800fa004c
:100f3800000f7800110798002207980033079800df
:100f48009e0090001e007800e3ff0700ae009000ae
:100f58001e007800e7ff0700be0090001e00780022
:100f6800ebff07000080fa00000006000400fa000a
:100f7800100798000040eb00004f78001100370080
:100f88001e80fb006a00b90080007800a090200055
:100f980000804000900078001e009000808f500074
:100fa80007003a001e80fb006a00b9008000780044
:100fb800a0902000008040008000eb00010878002d
:100fc8001e4fe8001e407800e94f5000ecff360045
:100fd8000080fa00000006000800fa0010079800d8
:100fe800220798003307980008c8bf000004a20031
:100ff8000004e000020032000040eb002800370047
:101008000040eb00004f7800210037001e80fb00f5
:101018006a00b90080007800a0902000008040009d
:10102800100078000000e00018003a001e80fb0065
:101038006a00b90080007800a0902000008040007d
:101048009e009000010878001e80fb006a00b9002d
:1010580080007800c0902000008040002e019000a1
:10106800be0190000288be001e80fb006a00b90025
:101078008000780000912000008140006000b800e6
:101088000089be0010c0b300050037001e4fe800fd
:101098001e407800e94f5000dcff36000040eb00ae
:1010a8000080fa00000006000200fa00000f780035
:1010b8001e0078000000e00003003200e10f50003d
:1010c8001500320018003700420620008000eb00af
:1010d800a09020002bfd07006105800080ff2f00f5
:1010e800008060000000a000600588008900a90059
:1010f8009a21ef0000fa2000f00c880000002a0076
:10110800100d88009900a80010c0b30008e8b700c7
:1011180010c0b300050037009900a9000868ef0067
:1011280010c0b300010037000040eb000080fa0057
:10113800000006000000fa005200070010c0b300cb
:101148000080fa00000006000400fa00000f780092
:10115800110798000a0037001e0078001040780038
:101168000000fb000000e000110032001e007800c3
:10117800104078001e0fe800100007000000000073
:101188001e00900000f0a7000000ea000000ea003e
:101198004f00de00004078009e0090008100e900ca
:1011a800110798000004e000ebff3a000100370047
:1011b800000000000080fa00000006000200fa00ab
:1011c800004f78001e00fb00e80f500003003200bb
:1011d800ec0f500017003200180037003040800034
:1011e8000000e00003003a00f00f200030408800c3
:1011f80003003700304080000000e90030408800dc
:1012080030408000a180200002c2b30082707800c4
:10121800304080000000e800304088003140800005
:1012280000102000808f500011003a000628ef00bf
:10123800120037001300070010003700304080000c
:10124800a18020001e417800827078003040800024
:101258000000e80030408800314080000010200085
:10126800808f500004003a000628ef000300370082
:101278000000000001003700000000000080fa00b4
:10128800000006000000fa000628ef000210200007
:1012980001022000a0802000bafc07000080fa00ac
:1012a800000006000200fa00004f78000080fa00f3
:1012b800000006000200fa00000f78001e00780007
:1012c800e10f500005003200e10f50001500390011
:1012d800e20f50000a00320014003700213380006a
:1012e800008020000080600000f0a7000000ea00f5
:1012f8000000e9004f00de00004078000c003700d5
:1013080021338000000021000080600000f0a70069
:101318000000ea000000e9004f00de00004078000d
:10132800030037000040eb00010037000040eb00ed
:101338000080fa00000006000200fa00000f7800a2
:101348001e007800e10f500005003200e10f500048
:1013580007003900e20f5000030032000500370093
:101368006366a800030037006386a8000100370001
:0c137800000000000080fa0000000600e9
:020000040000fa
:101384000a080000000100008000000006080000b8
:1013940002000000800000000a0900006400000050
:1013a4008000000008080000020000008000000027
:1013b400000800000600000080000000000000009b
:020000040000fa
:020000040005f5
:045e0000ff7fff0021
:020000040000fa
:020000040005f5
:045e2000ffffff0081
:020000040000fa
:020000040005f5
:045e300078ffff00f8
:020000040000fa
:020000040005f5
:045e38004bffff001d
:020000040000fa
:020000040005f5
:045e4000dfffff0081
:020000040000fa
:020000040005f5
:045e4800ffffff0059
:020000040000fa
:020000040005f5
:045e5000deffff0072
:020000040000fa
:020000040005f5
:045e5800efffff0059
:00000001FF
