:020000040000fa
:080000000001040000000000f3
:020000040000fa
:0400080004020000ee
:020000040000fa
:04000c0004020000ea
:020000040000fa
:0400100004020000e6
:020000040000fa
:0400140004020000e2
:020000040000fa
:0400180004020000de
:020000040000fa
:04001c0004020000da
:020000040000fa
:0400200004020000d6
:020000040000fa
:0400240004020000d2
:020000040000fa
:0400280004020000ce
:020000040000fa
:04002c0004020000ca
:020000040000fa
:0400300004020000c6
:020000040000fa
:0400340004020000c2
:020000040000fa
:0400380004020000be
:020000040000fa
:04003c0004020000ba
:020000040000fa
:0400400004020000b6
:020000040000fa
:0400440004020000b2
:020000040000fa
:0400480004020000ae
:020000040000fa
:04004c0004020000aa
:020000040000fa
:0400500004020000a6
:020000040000fa
:0400540004020000a2
:020000040000fa
:04005800040200009e
:020000040000fa
:04005c00040200009a
:020000040000fa
:040060000402000096
:020000040000fa
:040064000402000092
:020000040000fa
:04006800040200008e
:020000040000fa
:04006c00040200008a
:020000040000fa
:040070000402000086
:020000040000fa
:040074000402000082
:020000040000fa
:04007800040200007e
:020000040000fa
:04007c00040200007a
:020000040000fa
:040080000402000076
:020000040000fa
:040084000402000072
:020000040000fa
:04008800040200006e
:020000040000fa
:04008c00040200006a
:020000040000fa
:040090000402000066
:020000040000fa
:040094000402000062
:020000040000fa
:04009800040200005e
:020000040000fa
:04009c00040200005a
:020000040000fa
:0400a0000402000056
:020000040000fa
:0400a4000402000052
:020000040000fa
:0400a800040200004e
:020000040000fa
:0400ac00040200004a
:020000040000fa
:0400b0000402000046
:020000040000fa
:0400b4000402000042
:020000040000fa
:0400b800040200003e
:020000040000fa
:0400bc00040200003a
:020000040000fa
:0400c0000402000036
:020000040000fa
:0400c4000402000032
:020000040000fa
:0400c800040200002e
:020000040000fa
:0400cc00040200002a
:020000040000fa
:0400d0000402000026
:020000040000fa
:0400d4000402000022
:020000040000fa
:0400d800040200001e
:020000040000fa
:0400dc00040200001a
:020000040000fa
:0400e0000402000016
:020000040000fa
:0400e4000402000012
:020000040000fa
:0400e800040200000e
:020000040000fa
:0400ec00040200000a
:020000040000fa
:0400f0000402000006
:020000040000fa
:0400f4000402000002
:020000040000fa
:0400f80004020000fe
:020000040000fa
:0400fc0004020000fa
:020000040000fa
:0401000004020000f5
:020000040000fa
:0401040004020000f1
:020000040000fa
:0401080004020000ed
:020000040000fa
:04010c0004020000e9
:020000040000fa
:0401100004020000e5
:020000040000fa
:0401140004020000e1
:020000040000fa
:0401180004020000dd
:020000040000fa
:04011c0004020000d9
:020000040000fa
:0401200004020000d5
:020000040000fa
:0401240004020000d1
:020000040000fa
:0401280004020000cd
:020000040000fa
:04012c0004020000c9
:020000040000fa
:0401300004020000c5
:020000040000fa
:0401340004020000c1
:020000040000fa
:0401380004020000bd
:020000040000fa
:04013c0004020000b9
:020000040000fa
:0401400004020000b5
:020000040000fa
:0401440004020000b1
:020000040000fa
:0401480004020000ad
:020000040000fa
:04014c0004020000a9
:020000040000fa
:0401500004020000a5
:020000040000fa
:0401540004020000a1
:020000040000fa
:04015800040200009d
:020000040000fa
:04015c000402000099
:020000040000fa
:040160000402000095
:020000040000fa
:040164000402000091
:020000040000fa
:04016800040200008d
:020000040000fa
:04016c000402000089
:020000040000fa
:040170000402000085
:020000040000fa
:040174000402000081
:020000040000fa
:04017800040200007d
:020000040000fa
:04017c000402000079
:020000040000fa
:040180000402000075
:020000040000fa
:040184000402000071
:020000040000fa
:04018800040200006d
:020000040000fa
:04018c000402000069
:020000040000fa
:040190000402000065
:020000040000fa
:040194000402000061
:020000040000fa
:04019800040200005d
:020000040000fa
:04019c000402000059
:020000040000fa
:0401a0000402000055
:020000040000fa
:0401a4000402000051
:020000040000fa
:0401a800040200004d
:020000040000fa
:0401ac000402000049
:020000040000fa
:0401b0000402000045
:020000040000fa
:0401b4000402000041
:020000040000fa
:0401b800040200003d
:020000040000fa
:0401bc000402000039
:020000040000fa
:0401c0000402000035
:020000040000fa
:0401c4000402000031
:020000040000fa
:0401c800040200002d
:020000040000fa
:0401cc000402000029
:020000040000fa
:0401d0000402000025
:020000040000fa
:0401d4000402000021
:020000040000fa
:0401d800040200001d
:020000040000fa
:0401dc000402000019
:020000040000fa
:0401e0000402000015
:020000040000fa
:0401e4000402000011
:020000040000fa
:0401e800040200000d
:020000040000fa
:0401ec000402000009
:020000040000fa
:0401f0000402000005
:020000040000fa
:0401f4000402000001
:020000040000fa
:0401f80004020000fd
:020000040000fa
:0401fc0004020000f9
:020000040000fa
:100200004f8220000e7f24000e01880000000000b5
:10021000000020000000e000020032000001200089
:100220002002880014000700790007000000e000a9
:1002300003003a00602b220001002000020037007a
:100240000000200001002000810f7000010032003a
:1002500014000700000020000000e000020032004f
:1002600000000200000000003a1f02000000000031
:100270000040da000000fe004440a9006031200088
:100280000000e00003003200002020009001880000
:100290004440a800000006008a1f78008b1f7800e9
:1002a00000000600a1028800800478000000eb0036
:1002b0001f003700e284440054a0b4009905ba003e
:1002c000e284440054a0b4009906ba00e2844400d9
:1002d00054a0b4000006eb00476fde00fd07b2003b
:1002e000ae018800636ce10003003a00eaff0700fa
:1002f0000000eb000e003700606ce10008003a00df
:10030000004deb000a05e800020039003420ec0043
:100310000af0a0008b05e900f9ff3e000400370059
:100320006168e100010032000086eb000b0007006d
:1003300019c7ba001905ba000e04e00003003a001c
:100340000a00e000dbff3a0000000600fe07b200f2
:10035000ae0288008a047800f5ff37000cd0a300b5
:10036000e20f4d001c00390089027800354dba00bb
:100370000a05e800020039003420ec000af0a00071
:100380008b05e9000f003200254dba000a05e80090
:10039000020039003420ec000af0a0008b05e900cf
:1003a000080032000c00e0000600320015cdba0053
:1003b0000a05e800020039003420ec000af0a00031
:1003c0008b05e9008984e80054a0b4000b00e0002c
:1003d000e2ff3a00000006009902ba00055d7800cd
:1003e0008b05e900f7ff3200c82ade00055d7800c2
:1003f0008b05e900f3ff32000c00e000f1ff320052
:1004000019ddba00eeff37000040da000000fe0000
:10041000000005000000fa00cfb89700688157007f
:10042000df0107000080fa0000000600040007005a
:100430005c0007000c010700340107008e00370044
:10044000ec874700889fbe008a9fbe008c9fbe003d
:100450008e1f7800000678000104780018079000cd
:100460002805900098067800cdb79f00b805900049
:100470003202be002203be000400be000601be0020
:100480004f18de006011b8008000eb00d0b79f006d
:10049000e1b79f00f2b79f0083bf9f008004780000
:1004a0000900e000060032006000b8006011b800ea
:1004b00004025000858258000603590087835900c2
:1004c0000e00e000020035000d10a100cdb79f0026
:1004d0000900e00005003a004fb097000028a30093
:1004e00002003a000038a300020032008a00e9004e
:1004f000010037008a007800f8815700a200200030
:1005000008007800860007000900e00003003a00b8
:10051000cfb097000128a300080032000000e900d6
:1005200000814500b1c2b3000900e00001003200c3
:10053000d1c2b30001497800050037000138a3009b
:10054000030032000000e90001c2b30081757800a9
:10055000480190000201e90000015100808045003f
:100560004fb297008a0178000c007800a4010700c0
:100570009c0090000188a3000400320098009000c5
:10058000810f500001003d00010078004f07780006
:100590004f06be004f05be004f04be00cf00b100a5
:1005a000000006000200fa00889fbe008a9fbe007d
:1005b000000578000104780002007800180190001e
:1005c000a805900098007800b1bf9f00b804900083
:1005d0000200e000020035000110a100b1bf9f0041
:1005e000ea815700820020008b0078003002be00b4
:1005f0002003be0008007800490007003fb99700bb
:10060000f0006100030032000000e90001c3b30004
:10061000817478003fb99700e80061000300320060
:100620000000e90001c2b300817478004801900025
:100630000201e90000015100808044003fba9700a8
:100640008b0178000a0078006d0107009a00900085
:100650000188a3000400320098009000810f500030
:1006600001003d00010078004f05be004f04be00b0
:100670000080fa0000000600ea874700889fbe005d
:100680008a9fbe008e1f7800000478000300780067
:100690007287570084e2260055c72600049fbe00db
:1006a000c3962200030f78006c875700004feb00c1
:1006b00011059000a1049000910578000200e0006f
:1006c00002003200020778000100370072875700ed
:1006d0000000e00002003a000e00780085030700e9
:1006e0000a00e000030035008a0f500001003600c8
:1006f0000a0078000b027800890178000001780078
:100700008e007800080078003d0107004f07780050
:100710004f05be004f04be00af00b1000000060050
:10072000f4874700889fbe008a9fbe008c9fbe0052
:100730008e1f78000605be000404be0081bf9f0026
:1007400082b79f00f3b79f00b0009000e1b79f0011
:100750001301780092b79f00900690004006900029
:100760000c06e9000d00e00001003d001d00200026
:10077000efb197000c8041000048eb001e00200004
:100780001f0037000c06e9000fb09700cf80de0095
:100790006109b900a0b79f00b1b79f00c2b79f0021
:1007a000d3b79f000203be000002be000800be00d7
:1007b0000a01be006d05070000077800efb0970042
:1007c0000c80400003c3b300034847008d06e900d6
:1007d0000fb897000000e90080bf9f002fb297007c
:1007e000bfb297004fb39700dfb397000800be0079
:1007f0000a01be00560507000205be000004be0047
:100800000c00e0000d003200e00f5400e08f5c00af
:10081000e00f5d00e08f5d00daff3a000d00e000c0
:10082000d8ff3c008fb897000100e00003003400bf
:100830001fb197000218a300d2ff3a000e00e0009b
:1008400002003a00ffb197001340a1000c007800ad
:100850004f0778004f06be004f05be004f04be0094
:100860004f01b100000006000200fa00889fbe00a0
:100870008a9fbe008004780001047800020078009e
:10088000180190002805900098007800b1bf9f00e3
:10089000b80590000200e000020035000110a10040
:1008a000b1bf9f00ea815700a20020008a007800b3
:1008b0003002be002003be000800780098ff070049
:1008c000480190000201e9000001510080804500cc
:1008d0003fba97008a01780009007800c800070035
:1008e000990090000188a300040032009800900055
:1008f000810f500001003d00010078004f05be004f
:100900004f04be000080fa0000000600fa8747008e
:10091000889fbe008a9fbe008c9fbe008e1f7800fd
:1009200080047800010478008205780018019000a6
:100930002805900018077800b80090000200e00039
:10094000020035000e10a100010037001200200047
:1009500070006700e0b79f00090032003b02be0054
:100960002b03be00e00f5200e08f5a00e00f5b0047
:10097000e08f5b00020032008a86e9000100370048
:100980008a067800e8026700f5b79f000100320090
:100990008d06e9003b02be002b03be00e4af9f00c2
:1009a000f5af9f0086b79f0097b79f00480690005d
:1009b0000c06e9000c8040000048eb00efb2970005
:1009c0007fb297008903780081047800d8af9f0038
:1009d000020478008bbf9f008a05780003457800e9
:1009e0002a0037000c06e9006fab97006f00630028
:1009f000e90f500002003c000003b0000100370086
:100a00007005b0000a03fb001604b100f90f530093
:100a10000c003e00000378000650a0001606b1004e
:100a2000f90f530007003e00b4b79f00a5b79f0021
:100a3000c7b79f0031030700cfb39700afb297004d
:100a40003fb2970080747e000804e9008d06e9003b
:100a50006fa89700ffa897000fb197009fb197006c
:100a6000460020008301d1000281d3008180d300a1
:100a70000080d3000603e900faff3a00e0af9f00d0
:100a8000f1af9f0082b79f0093b79f00e10f560020
:100a90000f0036006fa89700ffa897000fb19700ce
:100aa0009fb19700e00f5000e08f5800e00f590011
:100ab000e08f5900cbff3a000800e000c9ff3c007e
:100ac0000d00e000020034000e18a300c5ff3a003c
:100ad00089007800f4b79f00870478005fac970026
:100ae0008a4178000b0578008fbd97000500e00073
:100af000100032003b02be002b03be00e4af9f009b
:100b0000f5af9f0086b79f0097b79f00e00f520098
:100b1000e08f5a00e00f5b00e08f5b0005003200c1
:100b20000c06e90083707e000c06e90000c3b300e8
:100b300080707e00ffb297000500e00003003200e5
:100b40000c06e90000c2b30080707e0048019000ee
:100b50000201e9000c0151008c8040000e02780077
:100b60008a017800090078002500070099009000ac
:100b70000188a3000400320098009000810f50000b
:100b800001003d00010078004f0778004f06be00cd
:100b90004f05be004f04be00af01b10000000600cb
:100ba0008201780001017800f1ff27006902370017
:100bb000889fbe008a1f780080047800490090005a
:100bc00002047800800f5400010036000004780011
:100bd000080178006a8544001a007800db010700ec
:100be0001a004400000d7800e8844400990c1400b9
:100bf0000048eb004f0578004f04be0000000600df
:100c0000f2874700889fbe008a9fbe008c9fbe006f
:100c10008e1f7800800478000105780002047800b7
:100c2000830578006107620002003a008b0f5400d0
:100c300008003900080178008a007800090078006f
:100c4000dbff07008b0f5400020039008805780095
:100c50001e003700088655000c017800f00f560082
:100c60000100360002012000010220007e805700b2
:100c7000bd0107008c067800050037000201200046
:100c8000fe80570009007800c9ff0700f086560073
:100c9000ef8f5600f9ff3e004461de0000ff2f0099
:100ca0000091b90002014600fe805700090078005b
:100cb000bfff07000e00e00004003a0008017800c2
:100cc0008a00780009007800b9ff07000b0078005f
:100cd0004f0778004f06be004f05be004f04be0010
:100ce0002f01b10000000600000005000000050013
:100cf00000000500000178000040eb008080fb0050
:100d000081804000c380200063c278000404e000ba
:100d100003003a00d080200060c078000000060088
:100d200092017800934f520004003a00d0802000d6
:100d300060c078000309e800010037000040e800c7
:100d4000ea4f5000edff360000000600f68747002e
:100d5000889fbe008a9fbe008c9fbe008e1f7800b9
:100d60008004780001047800830578000406780088
:100d70000000eb00c0b79f008080eb00d1b79f0060
:100d8000e0b79f00f2b79f000008200080bf9f00df
:100d900098007800010078000005eb0001003700a2
:100da0000a05e800304178000204e0000300320048
:100db00053c2b300834f5100f9ff3a000a00e0002c
:100dc000040032000a0178000900780078ff07006b
:100dd000180c45001807780050c2b3009e4f100051
:100de00033013a000e07e8000e0c780010003700bf
:100df000cfb097000100a0000b003700cfb09700e4
:100e00000110a00008003700cfb097000120a0001b
:100e100005003700cfb097000130a0000200370076
:100e2000cfb097000140a000c1b79f00000ce800c0
:100e30001800780090407800b2c2b30082cf500012
:100e4000f1ff320007003c0002c2b30082cf500025
:100e5000f0ff320032c2b30082cf500007003a00e8
:100e6000efff3700d2c2b30082cf5000e0ff320064
:100e700002c3b30082cf5000e0ff3200a2c2b30031
:100e800082cf50000d003a00000ce8001c80e90001
:100e9000000e780010007800e0b79f000000e0002e
:100ea0000f003d00cfb097000100a200c1b79f0026
:100eb0000000ea00e0b79f0009003700e2010700e8
:100ec000e0b79f0001003700000ce8001800780030
:100ed0009000fb000103b100e98f5000faff3600db
:100ee0004fb097000008a300020032000010a100dc
:100ef000c0b79f0018007800e1c2b30090cf100087
:100f000016003a008000eb00d1b79f000000e80017
:100f1000000c7800a1c2b30090cf100006003a0088
:100f2000000ce8001c80e900000e7800100078003a
:100f3000d0b79f0009003700c3010700d0b79f005a
:100f400001003700000ce800180078009000fb005a
:100f50000103b100e98f5000faff36000800780065
:100f600064ff070080467800180078001000fb003e
:100f7000db01070091062000810f5000380032008d
:100f800012003c0041062000810f50003400320066
:100f90000a003c0011062000810f500020003200a2
:100fa00031062000810f50009a00320051022000cb
:100fb000810f5000ae003a00a700370071062000f4
:100fc000810f5000aa003c0082003700010720007a
:100fd000810f50005c00320007003c00e106200059
:100fe000810f500074003200f1062000810f500084
:100ff0009f003a003900370051072000810f500050
:101000002700320081072000810f5000420032008b
:1010100031072000810f500095003a00850037000d
:101020008d80fb000c01780000fe2f000f004000b7
:10103000b90107000000e0009c00320018007800b1
:10104000000ce8009041780002fe2f000f014100e3
:10105000f88057000900780024ff07000e003700d1
:101060008d80fb008c0178001200200000fe2f0014
:101070000f004000c70107000000e0008b003200b5
:10108000180ce80002fe2f000f014100f880570005
:1010900009007800eafc07000005450084003700dd
:1010a0008d80fb008c0178000001eb0000fe2f001a
:1010b0000f004000b70107000000e0007b00320095
:1010c000180ce80002fe2f000f014100f8805700c5
:1010d00009007800e4fd0700efff37008d80fb007a
:1010e0008c0178000001eb0000fe2f000f00400093
:1010f000a80107000000e0006c003200180ce800b6
:1011000002fe2f000f014100f8805700090078000f
:1011100024fd0700e0ff37008d80fb008c01780084
:101120000001eb0000fe2f000f00400099010700b6
:101130000000e0005d00320018007800000ce800bc
:1011400090417800160037008c0178000001eb0018
:10115000010f200000fe2f000f0040008d0107004e
:101160000000e00051003200180ce8000fb09700ba
:101170009fb097002fb19700bfb19700e00f5000cc
:10118000e08f5800e00f5900e08f590003003a004b
:101190008001eb00628020004000370083c7b3006d
:1011a00002fe2f000f014100f8805700090078006f
:1011b000d6fd0700b8ff37000b0145008d80fb000e
:1011c0008c01780000fe2f000f004000ca010700cc
:1011d000360037008d80fb000c01780000fe2f00e8
:1011e0000f0040004c0107000000e0002f0032001b
:1011f00018007800000ce8009041780002fe2f00f3
:101200000f014100f880570009007800b7fe070081
:10121000a1ff370000c8b30080cf560023003a007a
:10122000180ce8001c80e900000e780010407800df
:101230000d00370000c8b30080cf56001b003a00f5
:10124000180ce8001c80e900000e78008001eb001b
:10125000100178001100370001c8b30081cf56009b
:1012600012003a00180ce800e0df9f000800370089
:1012700050c2b300e0df9f000e0c78000000eb00ce
:10128000c0b79f00e0b79f008080eb00d1b79f0000
:1012900013002000e2fd2f000f014100f8805700ed
:1012a00009007800f4fc07007bff3700180ce80009
:1012b0000a0078004f0778004f06be004f05be00b9
:1012c0004f04be006f01b100000006008200fa006a
:1012d000889fbe008a1f780000057800820478008d
:1012e000c13f9f000004eb001000370009027800a6
:1012f00088017800a2f72f000f01410081f72f002d
:101300008f8040000a00780090fe0700080040002f
:10131000880f500004003d00b004200010418800f8
:101320000084eb0004003700000478004f38970079
:101330001004e000edff3a00080078004f05780047
:101340004f04be000080fa00000006008001780013
:1013500002003700b15978000201e9000200e00004
:10136000fcff3a0000000600889fbe008a9fbe0076
:10137000800478000200e0005a003200014078004a
:10138000814c780082814400f1f99f00e20f510006
:101390005400360091449800a1449800e1f99f0060
:1013a000d1f99f00e60f51004e003600b14498007d
:1013b000c1f99f00e80f51004a0036000905ea0014
:1013c000630565000a8444000a055100c1ff2f002f
:1013d000010565000080fb008000eb00121020007a
:1013e00013102000b2010700008cbe000a01440067
:1013f00060b99f0071b99f00e80f550039003600b1
:10140000200498003104980040049800510498008a
:1014100020b99f0031b99f0040b99f0051b99f008a
:10142000f80f55002f0036006004980071049800f2
:10143000000c9800110c9800200c9800310c9800ba
:10144000400c9800510c980020b19f0031b19f00d2
:1014500040b19f0051b19f0060b19f0071b19f00ea
:1014600000b99f0011b99f00640164007801410038
:1014700002044400020555006011b8000203be00da
:101480000002be000403be006022b800000072002b
:101490008180720002017300838173000f003700a6
:1014a00008027800009abe00029abe00009abe00b0
:1014b0000292be00000c9800110c9800220c9800bb
:1014c000330c9800400c9800510c9800620c980066
:1014d000730c98000a02b1000802b000ff0f55001b
:1014e000efff3e00090078004f05be004f04be002c
:1014f0000000060080007800040037003104e0009e
:1015000002003a00000051000000060001017800ce
:101510000108a300f9ff3a00810178003101780049
:10152000f4ef2f00020242000281ea000201620091
:101530000408280004016100f7ff320083007800ee
:10154000010178003104e000fdff3a000000510085
:1015500000000600f28747008e1f78000202780024
:10156000030178000000e00002003200000778006c
:1015700001003700728757008002eb000100e00095
:10158000010032008102e900708057000600090066
:101590000018eb007280570000a8eb002310200019
:1015a00093bf9f00aebf9f00b1bf9f00c5bf9f000c
:1015b0000100e00004003d00b0042000104188005c
:1015c0000080eb0005003700004feb00eebf9f00ee
:1015d000debf9f0084007800030007004f077800fb
:1015e0002f01b100000006000200fa00881f7800f9
:1015f00000047800e2bf9f00648157000800780073
:1016000032ff0700980090000148a300010032005b
:101610000080eb004f0478000080fa000000060014
:10162000800078001000200002022000828f50000d
:1016300004003200e9805000e48f500001003600c1
:101640000000eb0000000600889fbe008a1f7800a3
:10165000800478000904780088047800394578000f
:101660000a00fb00eeff07000000e000f9ff3a006f
:10167000b0c2b300804f550005003200d0c2b300a5
:101680008000eb00804f550005003a000200370053
:101690008000eb0001003700110020000804e80082
:1016a0000000eb00030037006a02b900020052009c
:1016b0000003b0003801fb0003fd2f0082814100d0
:1016c000e98f5100f8ff36000100e00001003a0008
:1016d0000000ea004f0578004f04be00000006003d
:1016e000f1fb2f0080804000f98f500001003e0088
:1016f0000050a00000000600f9ff3700f1f92f00ac
:1017000080804000f98f500001003e00f005b200db
:1017100000000600f9ff3700881f780000047800f9
:1017200000082000808f50001700350010082000ae
:10173000808f50000b00340030082000808f500054
:1017400011003a009200780068805000000978008b
:101750003002be002003be00049cbe000694be0002
:101760000700370092027800648052000009780078
:101770001000be009a000700009cbe000294be004c
:1017800010002000010037000000eb004f0478003b
:101790000000060084082000848f50001d003200e5
:1017a0000d003c0014082000848f500027003200f8
:1017b00002003c0004082000040037002408200038
:1017c000848f50002a00320044082000848f50008b
:1017d00048003a003b003700040a2000848f500084
:1017e0002c00320004003c0004092000848f5000cb
:1017f00040003a002d003700020c2000828f50007c
:101800001e003200020f2000828f500039003a0083
:10181000300037009380e9000200e000050032004c
:10182000810978001102fb00cfa2de00612bb90014
:101830002d00370081097800114278000482fb00f6
:101840008002eb006033b8002700370013027800f5
:10185000e40052000200e0000a0032008109780032
:101860001102be004fabde00860378001e00370079
:1018700093027800e88052000e003700930278004f
:10188000e4805200810978001102be006033b80084
:10189000150037009380e900810978001102780073
:1018a000cfa2de00612bb9000f00370013037800d0
:1018b000e8005300810978003102be002103be0018
:1018c000090037009380e9000200e00002003200c6
:1018d000f1ff37009380e900810978001102780058
:1018e0008002eb006033b8000498be000690be0092
:1018f000100005000000050044082000848f5000ff
:10190000270032000a003c0014082000848f500099
:101910001c00320024082000848f50002600320072
:1019200004082000848f50002c003a001c0037006f
:1019300004092000848f50001f00320004003c0086
:1019400084082000848f500024003a0007003700ec
:10195000040a2000848f500011003200040c200083
:10196000848f50001d003a00060037009380e90084
:101970008109780091007800010878008248780099
:10198000150037009380e900810978009100780004
:1019900001087800cf91de008288be000e0037007b
:1019a0009380e900810978009100780001087800af
:1019b00082087800080037009380e90081097800e8
:1019c00091007800010878006112b900612bb9001c
:1019d0008498be008690be0010000500000005003f
:1019e000810378001d0007000001be006000b80000
:1019f0000478a30013003a006220e10015003e00c5
:101a00000d0039008301d1000281d3008180d30011
:101a10008301d1000281d3008180d3008301d100f2
:101a20000281d3008180d3000538b000c42add00d4
:101a3000f300b2008381720007f0a70003f0a0005a
:101a40000000060083ff2700020020006110b9009b
:101a5000f9ff370003ff2700f7ff3700c70ade0052
:101a6000f107b200f50fb20008003200e1cf4200ea
:101a7000020032000170a00024000500810f7000f8
:101a8000010032000408050044000500810f7000c9
:101a900002003a00140005008502e9000000400041
:101aa00081c04800fcff3b000170a000240005003d
:101ab000020ab900001bb9000200b8008100420010
:101ac0008100430000000600889fbe008a9fbe0080
:101ad00030044200b0844a0030054b0090854b0032
:101ae0006000b1000898be000a90be000440e1000a
:101af00005c8e10006d0e10007d8e100020031008e
:101b0000680040001008e8004f05be004f04be000a
:101b100000000600889fbe008a9fbe003004be0001
:101b20002005be000418540005985c0006185d00ee
:101b300007985d00110020000440e10005c8e100a5
:101b400006d0e10007d8e100010039008000eb0079
:101b5000108810004f05be004f04be0000000600b4
:101b6000f4874700889fbe008a9fbe008c9fbe00fe
:101b70008e1f7800d0b79f00e1b79f00f2b79f009b
:101b800083bf9f000605be000404be00cfae9700d1
:101b90000000eb00c0b79f00b0b79f00a0b79f0048
:101ba00090b79f0080b79f00000678004fb0970065
:101bb000000140000000e00006003d003c0007007e
:101bc0000f074700450007000f004000beff070059
:101bd00005003700360007000f0747003f000700e9
:101be0000f004000cbff07004fb797000e00e0004a
:101bf0000c0035005fb29700efb297007fb39700fb
:101c00008fbb970010002000010020006011b80079
:101c100000027200818272000203730083837300ea
:101c20001c0007000c06e80001042000810f56008c
:101c3000deff3a000e00e00005003d000802be0095
:101c40000a03be0000fe2f000f0040009eff0700a9
:101c50000d00e00005003a000fb297009fb2970018
:101c60002fb39700bfb397000a0007005fb097003b
:101c7000efb097007fb197008fb997004f077800ba
:101c80004f06be004f05be004f04be004f01b1001d
:101c900000000600010007000000060094b79f0046
:101ca000a5b79f00b6b79f00c7b79f00000006000a
:101cb0009fb097004f08de0002017000a2b79f009e
:101cc0000fb097004f01de0081804000810071005d
:101cd00091b79f000efe2f0000000600de00780086
:101ce0004f09de00000040000000710080b79f0037
:101cf0006fa897004f01de0081804000010f710046
:101d00000e0007004f3ade000000400004007000a3
:101d1000e0af9f00090007000402420085824a00ec
:101d200006034b0087834b00dcff07000802be0060
:101d30000a03be0000fe2f00000006001fb297003d
:101d4000afb297003fb39700cfb3970000000600f3
:101d5000881f780018002000881f780080ff070087
:101d60008f87e9004f04780000000600801feb0019
:101d70007bff07008f87e90000000600889fbe00f8
:101d80008a9fbe00e00f5000e08f5800e00f59001e
:101d9000e08f59000c003d006044b8006055b80069
:101da0000000540081805c0002015d0083815d00c1
:101db000180020001500070008003d00180007006b
:101dc0000004eb00050037000004eb000f000700e3
:101dd00002003d001200070018002000dcff070091
:101de0000800e000060032006022b8006033b8004e
:101df0000000520081805a0002015b0083815b0079
:101e00004f05be004f04be0000000600e00f520068
:101e1000e08f5a00e00f5b00e08f5b0000000600df
:101e20006044b8006055b8000402540085825c002c
:101e300006035d0087835d0000000600889fbe00ea
:101e40008a9fbe008c1f7800e00f5000e08f580082
:101e5000e00f5900e08f59000d003d006044b800cc
:101e60006055b8000000540081805c0002015d00f4
:101e700083815d001c0020000820e10009a8e1002a
:101e80000ab0e1000bb8e1000d003d00080037008a
:101e90000006eb00e00f5200e08f5a00e00f5b00fd
:101ea000e08f5b0006003d006044b8006055b8005c
:101eb0000402540085825c0006035d0087835d0098
:101ec000aaff07000c00e000060032006022b80004
:101ed0006033b8000000520081805a0002015b00ac
:101ee00083815b004f0678004f05be004f04be00a3
:041ef00000000600e8
:020000040000fa
:101ef4005f5f000005080000000000000000000013
:101f04000000000000fa00000000000000e00000f3
:101f140000e0000000280000fe280000fe28000069
:101f240024540000fe54000048c40000c8100000ff
:101f3400264600006c9200006a0400000a000000bb
:101f440010e00000c00000000038000044820000df
:101f540000000000824400003800000054380000f3
:101f6400fe38000054100000107c00001010000027
:101f7400000000000e0c0000001000001010000013
:101f8400101000000000000006060000000400001d
:101f940008100000204000007c8a000092a200008b
:101fa4007c00000042fe0000020000004e9200008f
:101fb400929200006284000082920000b2cc000081
:101fc4001828000048fe000008e40000a2a2000057
:101fd400a29c00003c520000929200008c820000ff
:101fe4008488000090e000006c920000929200004f
:101ff4006c620000929200009478000000000000df
:102004002800000000000000022c00000000000076
:102014000010000028440000822800002828000046
:10202400282800000082000044280000104000001e
:10203400809a0000906000007c820000ba9a000040
:10204400723e000048880000483e0000fe920000f6
:10205400929200006c7c00008282000082440000a6
:10206400fe820000828200007cfe0000929200004a
:1020740092820000fe90000090900000807c00009e
:10208400828200008ace0000fe10000010100000c2
:10209400fe00000082fe0000820000000402000036
:1020a40082fc000080fe0000102800004482000032
:1020b400fe0200000202000002fe000040380000a0
:1020c40040fe0000fe20000010080000fe7c00001e
:1020d40082820000827c0000fe900000909000004c
:1020e400607c0000828a0000847a0000fe90000078
:1020f400989400006264000092920000924c0000e8
:10210400c0800000fe800000c0fc0000020200004d
:1021140002fc0000f804000002040000f8fc0000c7
:10212400021c000002fc0000c62800001028000069
:10213400c6c00000201e000020c00000869a0000d7
:1021440092b20000c2000000fe8200008282000001
:1021540040200000100800000400000082820000fb
:1021640082fe0000204000008040000020020000a9
:10217400020200000202000000c00000e0100000a3
:10218400000400002a2a00001c020000fe140000c3
:10219400222200001c1c0000222200002214000045
:1021a4001c22000022140000fe1c00002a2a000049
:1021b4002a180000001000007e900000403000004b
:1021c4004a4a0000523c0000fe100000202000009b
:1021d4001e00000022be00000200000004020000f5
:1021e40002bc000000fe00000814000022000000f1
:1021f40000820000fe020000003e0000201e0000dd
:10220400201e00003e100000202000001e1c0000c4
:1022140022220000221c00003e180000242400009a
:102224001818000024240000183e00003e1000008e
:1022340020200000101200002a2a00002a24000096
:1022440020200000fc220000243c000002020000c8
:10225400043e00003804000002040000383c000082
:10226400020c0000023c00002214000008140000cc
:10227400223200000a0a00000a3c00002226000064
:102284002a32000022000000106c000082000000ce
:1022940000000000fe00000000000000826c00004e
:1022a40010000000408000004020000040000000ba
:1022b400dff700005aff0000ff070000fa7f00006c
:1022c400fff70000bbf7000038ff0000000000002b
:1022d40059ff00001f0000005c89000045a10000b8
:1022e400d0dd0000f45c0000e07f000043d3000078
:1022f400eafb0000bd640000dbff0000a7d800007b
:10230400ff070000110000005104000021bc000080
:1023140055ad00002003000055ad0000adbd000028
:10232400118800004553000060fc000099990000ea
:1023340000880000afec0000f18d0000f1490000be
:10234400692a0000692a00007a0600001a90000039
:10235400b2f80000ff0500004d6b00004d6b00005b
:102364009f1c000004b10000deff000044240000b4
:102374001ff80000fbde0000dfff0000a0fe0000ed
:1023840024dd00001084000000040000e5af00001c
:1023940010840000fef7000056fb0000ebca0000aa
:1023a40010480000feff000031f700003fe7000086
:1023b4009eff0000e07f0000d9ff0000dcae0000bb
:1023c40010f40000ffe70000daff00009ad60000d6
:1023d400729700009ad60000b8fd00000ffd0000bf
:1023e400952500007f86000053740000537400009c
:1023f4003bb60000fcff0000e0070000663600006a
:102404009cff00001ff800000080000075660000bb
:1024140019000000baba00009b9300008e3d000032
:102424005d7b0000d3070000994e0000b0c000009f
:10243400ce180000fff700003cff000036ff00004c
:10244400f5fe000010000000bcff00000084000046
:10245400646c000020fd000020fa00009adb0000fc
:1024640055ef0000d39f00007daf000092db000019
:102474007aff0000d7fe000027cc000019fe000000
:102484001bdd00001cb700001080000000f80000f5
:1024940071bc00005c430000228a00000efc0000b6
:1024a4002cf500004a2c0000bdff000085a20000ae
:1024b40018c600007d860000d96a0000127400006e
:1024c40012740000dfff0000ef0700001644000054
:1024d400b1d5000010040000fbdd000008fb000083
:1024e4001a4700001dec0000f6f60000ffff000094
:1024f400bef70000e0ff0000669e000025640000b7
:1025040000000000200100000000000000000000a6
:0c251400200100000f000000000000008b
:020000040000fa
:102520000400fa000e81e8000049780063004700cb
:10253000014878000e80e800104078008080fb00a1
:1025400063004700104078000000fb00008f40004f
:10255000a0f72800104078000080fb009e0f50007c
:1025600003003d00a0f72800104078000a00370063
:102570001e0078000000e00002003d000040eb007b
:102580000500370063004700904078000e80e800a7
:102590001040780000c040000080fa0000000600f3
:1025a0000200fa00004f78000e00e80001487800b1
:1025b000a0f72800104078009e40780080cf50009f
:1025c00006003e00b0f72800104078008e00e800ba
:1025d0009140780080cf5000020036000000eb00f0
:1025e00008003700f1c5b3001e407800440507001d
:1025f000f1c5b3000e00e800104078002605070082
:10260000700507000080fa00000006000400fa00d0
:10261000004f78000e00e800014878000e80e800c6
:1026200002087800a0f72800104078009e4078004b
:1026300080cf500011003e00b0f728001040780015
:102640008e00e8009140780080cf50000d003e00e1
:10265000f1c5b3001e40780029050700f1c5b3009d
:102660000e00e800104078000b0507000e80e8001f
:10267000100078007105070003003700000000001b
:1026800001003700000000000080fa000000060092
:102690000e00fa0068024700004a7800690047000f
:1026a000014878006a004700024878006c00470043
:1026b0000308780068004700104078008080fb0025
:1026c0006a004700104078000080fb0080805000c6
:1026d000a0f72800104078000080fb00808f500099
:1026e0009c003c0069004700104078008080fb009f
:1026f0006a004700104078000080fb008080500096
:10270000b0f72800104078000080fb00808f500058
:1027100092003c006a004700104078000004e0008e
:1027200001003a0010c0b300ea004700804878007a
:102730006a00470010407800804078006800470039
:102740001040780076ff07008e80e800804878000f
:102750006a004700104078000040ea00804078009e
:1027600068004700104078006dff0700e300470055
:10277000804878006a004700104078008040780068
:10278000690047001040780065ff0700e40047003b
:10279000804878006a004700104078000040ea0056
:1027a0008040780069004700104078005cff070017
:1027b000e50047008048780063004700104f78002c
:1027c0005e00370068004700104078009e4f5000c0
:1027d0000400390068004700104078001e40500097
:1027e000040037009e4078006800470010407800e1
:1027f00000c05000e6004700804878000e00e80066
:10280000e50047001148780045003700690047009f
:10281000904078000e00e8001040780080cf500013
:102820000600390069004700904078000e00e8007b
:102830001040780000c05000050037000e00e8008e
:1028400090407800690047001040780000c05000b8
:10285000e700470080487800670047001040780094
:102860008080fb0066004700104078000080fb007d
:10287000808040006a004700104078000080fb0024
:10288000808f50001b003400670047001040780024
:102890008080fb0067004700104078000080fb004c
:1028a0000088b900000178006600470010407800f9
:1028b0008080fb0066004700104078000080fb002d
:1028c0000088b90000007800000141006a0047005c
:1028d000104078008080fb006a00470010407800bc
:1028e0000080fb000088b90000007800800f5100d4
:1028f00006003c006c004700100178000e00e80064
:10290000904078001e40780040ff07000e00e8006d
:10291000104078008040e8000e00e8000148780090
:102920000e00e800904078006400470010407800f6
:1029300080cf5000b5ff39001e4fe8000e80e80040
:10294000104078009e40780080cf50009dff3900f5
:102950000300370000000000010037000000000005
:102960000080fa00000006000c00fa006602470032
:10297000004a780067004700014878006800470077
:10298000024878006a004700030878008040eb00a6
:102990000e00e800014878008040eb000e80e8005f
:1029a000014878008040eb00630047000148780050
:1029b0008000eb00640047000108780068004700d1
:1029c000104078000004e00001003a0010c0b3009d
:1029d000e800470080487800680047001040780011
:1029e0000040e800004f78008040eb000e00e80057
:1029f000014878008040eb000e80e8000148780034
:102a00008000eb0064004700010878009f00370059
:102a10000e00e800104078000000fb0000004000bd
:102a20000000e800e400470091007800808040004a
:102a300064004700010878000e00e80010407800ac
:102a40008040e8000e00e80001487800640047007c
:102a5000100078000000e0008c0035007a0037009c
:102a6000630047008e80e800114878006d00370051
:102a70000e80e80090407800670047001040780022
:102a800080c04000630047001041780066004700a6
:102a900010407800004041006a01470012017800b0
:102aa000dafe07000e80e80010407800e7004700db
:102ab0009140780080c050006300470010417800ca
:102ac0006600470010407800004041006a0147005e
:102ad00012017800cdfe07000e80e80090407800db
:102ae000670047001040780080c040006300470046
:102af0001040780066014700124178000040510004
:102b00006a01470012017800c0fe07000e80e8004d
:102b100010407800e70047009140780080c05000e6
:102b200063004700104078006601470012417800ba
:102b3000004051006a01470012017800b3fe07000f
:102b4000630047009040780067004700104078001d
:102b500080c040000e80e800104178006600470009
:102b600010407800004041006a01470012017800df
:102b7000a6fe07006300470010407800e70047000a
:102b80009140780080c050000e80e800104178002d
:102b90006600470010407800004041006a0147008d
:102ba0001201780099fe070063004700904078000a
:102bb000670047001040780080c040000e80e800a9
:102bc0001040780066014700124178000040510033
:102bd0006a014700120178008cfe0700630047007d
:102be00010407800e70047009140780080c0500016
:102bf0000e80e8001040780066014700124178001e
:102c0000004051006a014700120178007ffe070072
:102c100063004700104078008040e80063004700f0
:102c20000148780063004700104078009e4f500034
:102c30008fff35000e80e800104078008040e800eb
:102c40000e80e800014878000e80e800904078008f
:102c50000e00e8001040780080cf500080ff350063
:102c60009e00fb00e0ff2f000088b9000000780004
:102c70000000e800e40047009100780080804000f8
:102c800064004700010878001e4fe9000e00e800cc
:102c9000104078009e40780080cf50005cff3d00df
:102ca0000080fa00000006000a00fa00e402470073
:102cb000804a7800650047000148780066004700b8
:102cc0000248780067004700034878006800470022
:102cd0000408780067004700104078000080fb007f
:102ce0000000d10000407800e600470091407800e5
:102cf00080c040006600470001487800910037001e
:102d000066004700104f78008040eb000e00e8009e
:102d1000014878008000eb000e80e8000108780090
:102d20007e0037000e00e800904078006500470004
:102d30001040780080c040001e41780064004700c9
:102d400010407800004041006801470012017800ff
:102d50002efe07000e00e80010407800e500470056
:102d60009140780080c050001e4178006400470008
:102d700010407800004041006801470012017800cf
:102d800022fe07000e00e800904078006500470032
:102d90001040780080c040001e4078006401470069
:102da000124178000040510068014700120178008c
:102db00016fe07000e00e80010407800e50047000e
:102dc0009140780080c050001e40780064014700a8
:102dd000124178000040510068014700120178005c
:102de0000afe07009e40780065004700104078000a
:102df00080c040000e00e8001041780064004700e9
:102e0000104078000040410068014700120178003e
:102e1000fefd07001e407800e50047009140780065
:102e200080c050000e00e8001041780064004700a8
:102e3000104078000040410068014700120178000e
:102e4000f2fd07009e4078006500470010407800c2
:102e500080c040000e00e800104078006401470088
:102e600012417800004051006801470012017800cb
:102e7000e6fd07001e407800e5004700914078001d
:102e800080c050000e00e800104078006401470048
:102e9000124178000040510068014700120178009b
:102ea000dafd07000e00e800104078000000fb008b
:102eb000000040000000e8008e80e80091007800eb
:102ec000808040000e80e800010878000e00e800d5
:102ed000104078008040e8000e00e80001487800cb
:102ee0000e80e800100078000000e0000b003500c4
:102ef0009e00fb00e0ff2f000088b9000000780072
:102f00000000e8008e80e80091007800808040009a
:102f10000e80e800010878001e4fe9000e00e8006e
:102f2000104078009e40780080cf50007dff3d002b
:102f300066004700104078008040e90066004700c6
:102f40000148780067004700104078000080fb00cf
:102f50000000ea004f00de0000407800e700470074
:102f6000914078000141e900e7004700824878007d
:102f70000004e00062ff3a000080fa000000060052
:102f80000e00fa0066034700004b78006700470018
:102f9000014878006800470002487800690047004f
:102fa000034878006a004700044878006c00470036
:102fb000050878006a004700104078000004e0002f
:102fc00001003a0010c0b300ea00470080487800d2
:102fd0006800470090407800660047001040780085
:102fe00080c0500063004700014878006900470036
:102ff00090407800670047001040780080c0500083
:103000006400470001487800640047009040780061
:10301000630047001040780080c050000e80e80038
:10302000014878000e00e800e700470011487800ea
:1030300066004700104f78003c0037009e00fb0000
:10304000a0f72800104078000080fb00808f50001f
:103050001e003c000e00e800104078008000fb00dd
:10306000b0f72800104078000080fb00808f5000ef
:1030700016003c006a00470010407800e14f500005
:1030800007003e000e00e800904078001e407800e7
:103090006c014700120178005cfd07000b0037004f
:1030a0006a004700104078000080fb000000d1005b
:1030b000004178000e00e800904078001e40780043
:1030c000ec0147009301780027fe07000e80e8001e
:1030d000104078000004e0000c0035000e00e8000d
:1030e000104078008040e8000e00e80001487800b9
:1030f0000e80e800904078006300470010407800a0
:1031000080c050000e80e800014878000e80e80082
:1031100090407800640047001040780080c0400074
:103120000e80e800014878001e4fe8009e00fb007a
:1031300068004700104078000080fb00808f50003e
:10314000beff35000080fa00000006000800fa000b
:103150008e82e800804a78006300470001487800ca
:103160006400470002487800650047000348780083
:10317000660047000408780064004700904078002b
:103180000e80e800104078005d02070065004700ef
:103190009040780063004700104078003e0207002e
:1031a0000e80e800104f7800160037000e00e8008f
:1031b000e300470011487800080037006600470028
:1031c000100078009d0207000e00e8001040780013
:1031d0008040e8000e00e800014878000e00e8009a
:1031e000104078008080fb006500470010407800a8
:1031f0000080fb000000e800808f5000efff3500ea
:103200001e4fe8009e80fb006400470010407800dd
:103210000080fb000000e800808f5000e3ff3500d5
:103220000080fa00000006001000fa006803470062
:10323000004b780069004700014878006a004700a9
:10324000024878006b004700034878006c00470094
:10325000044878006e004700050878006c004700bd
:10326000104078000080fb0001fe2f0080804000ad
:10327000c0f72800104078000080fb000088b900eb
:103280000000780080007800e0f72800008f400000
:103290008000eb000e80e800010878005300370042
:1032a0009e00780066004700114878001e0fe80075
:1032b000d0f72800104078008080fb006b004700aa
:1032c000104078000080fb000088b9008000780082
:1032d00064004700010878003800370066004700a6
:1032e000104078000080fb00610060000040780022
:1032f0000004e00023003200640047001000780062
:1033000080407800690047001040780080c040008d
:103310006b0047001040780000c040008041e90089
:103320000e80e800100078008040780068004700b8
:103330001040780080c040006a00470010407800cc
:1033400000c040000041e900640047001000780020
:1033500080407800690047001040780080c040003d
:103360000e80e800100078000042780068004700f6
:1033700010407800004042006e02470014027800be
:1033800072ff070066004700104078000080fb00d5
:103390008000d10066004700014878006b004700bc
:1033a000104078000080fb00e400470091007800a6
:1033b00080805000640047000108780064004700e6
:1033c000100078000000e000c4ff3a006a004700e7
:1033d000104078000080fb008e80e80091007800ab
:1033e000808040000e80e80001087800c0f72800c7
:1033f000104078008080fb006a0047001040780091
:103400000080fb000088b900000078008e80e80092
:1034100091007800810f5000a1ff3e000080fa006b
:10342000000006000800fa00004f78000e00e800d7
:10343000014878000e80e8000248780063004700e9
:1034400003487800640047000408780066004700dd
:10345000050878001d003700640047001000780060
:1034600010407800e4004700910078000101e80076
:10347000e400470082087800e600470091027800e7
:103480000042780063004700904178000e80e80019
:10349000104178000e00e800904078001e4078004f
:1034a00061ff0700c0f72800104078008e80e80018
:1034b000914078008180fb000088b900000078000e
:1034c000004078001e404000004fe80064004700c4
:1034d00010007800104078000004e000deff3a00a1
:1034e0000080fa00000006001400fa00889fbe0069
:1034f000ea034700804b78006b00470001487800e2
:103500006c004700020878006e004700034878000e
:103510006f004700044878007000470005087800f5
:10352000720047000648780001c2b30066004700f9
:10353000014878006e004700104078000004e00069
:10354000030032006e004700104078000100370091
:1035500010c0b300ee004700804878006f004700bd
:10356000104078000004e000030032006f004700c4
:10357000104078000100370010c0b300ef00470092
:10358000804878000040eb00004f78005e00370074
:1035900070004700900078000e80e8003118780035
:1035a000211078007000470010007800e40040000f
:1035b00070004700010878001e407800ef004700c7
:1035c000914078008180fb000088b90000007800fd
:1035d000804078006b0047001040780080c04000b9
:1035e00067004700014878008040eb000e00e800cb
:1035f000014878003d0037000e80e8001000be0052
:1036000000007800610060008004eb000004780096
:103610000800be00e00f5000e08f580028003a007c
:1036200066004700104078008080fb000e00e80034
:10363000104078000080fb000080500000407800bf
:10364000ee004700914078008180fb000088b900bf
:1036500000007800804078006a0047001040780041
:1036600080c04000680047000148780067004700bc
:10367000904078006f0047001040780000c0400084
:103680008040e90068004700104178006e00470064
:1036900010407800004041000040e9006c01470004
:1036a00012027800814178000041780067004700ed
:1036b000904078006800470010407800a3fe0700a3
:1036c0000e80e8001000be008100d1000080d30011
:1036d0000e81e8000089be000e00e800104078006e
:1036e0008040e8000e00e800014878000e00e80085
:1036f00090407800660047001040780080cf50006e
:10370000bdff39001e4fe8007200470010407800ee
:103710009e40780080cf50009dff39004f04be00ce
:103720000080fa00000006000200fa00000f780096
:10373000c00520009e007800808f500004003200f9
:10374000d00520009e007800808f500009003a00cc
:10375000c00520009e007800808f500002003a00d3
:1037600010c0b3000100370020c0b30000e8b7006c
:10377000010037000068ef000080fa00000006003a
:103780000200fa00004f78000e00e80001487800bf
:103790003d0107000004a2000004e0000200320026
:1037a0000080eb000f0037001e4078007602070013
:1037b000004f78000e00e800104078007202070009
:1037c0008e00e800804878005b0207001e80fb0046
:1037d000c800dd000e00e800104078000080fb000b
:1037e000010070000080fa00000006000200fa00ec
:1037f00020c3b300004f780012c0b3008e007800e1
:10380000000a20008000070000c2b300004f7800cb
:1038100012c0b3008e007800100a20007a00070062
:103820000080fa00000006000000fa000041eb00f2
:103830008000eb00c0052000730007008f26a90060
:103840008e66a8000080fa00000006000000fa0062
:103850000041eb008000eb00d00520006a0007006b
:103860008f26a9008e66a8000080fa0000000600de
:103870000800fa000001780066004700010878009f
:1038800066004700100078004800de00004f780016
:1038900066004700900078000e00e80001487800bc
:1038a0001e80fb004300de00804078000e80e800b0
:1038b000014878001e80fb00670060004300dd00c7
:1038c000804078000e00e800104078000080fb0087
:1038d0004500de000040780000c0700080407800a5
:1038e00063004700014878000e00e80010407800af
:1038f000ff40600064004700014878000e80e80047
:1039000082007800904878008100e8000000e8001c
:10391000904878008100e8000000e80090487800b6
:103920008100e8000000e800020078000080fa0052
:10393000000006000600fa008e81e8008049780049
:10394000630047000148780064004700024878009f
:103950000e80e80010407800ff4060000e80e80014
:10396000014878006300470010407800f2c3b300bc
:10397000824060006300470001487800640047000f
:1039800010407800ff406000640047000148780064
:103990000e80e800104078000080fb004300dd004e
:1039a0008040780063004700104078000080fb00f2
:1039b0004300de000040780000c07000004f780037
:1039c00063004700104078000080fb004500dd00e8
:1039d00080407800640047001040780080c070008c
:1039e0000e00e800014878001e80fb00c800dd00e2
:1039f0000e00e800104078000080fb00010070001d
:103a00000080fa00000006000600fa00000f7800af
:103a10000e80e80001087800640047000248780042
:103a2000990007000004a2000004e00017003a001b
:103a30008f26a9008e66a9001e007800004078003d
:103a4000d101070064004700104078000004e00046
:103a5000090032008e66a80064004700104078001c
:103a60000080fb00800078000e80e80010007800e5
:103a7000f00107008e66a9008f26a800ae0107009e
:103a80001e00780028ff070001003700000000003a
:103a90000080fa00000006000400fa000e81e80031
:103aa0000049780063004700014878000e80e80074
:103ab00010407800f1c5b300814f5000010036007e
:103ac000f0c5b300004f7800630047001040780055
:103ad000f1c5b300814f500001003600f0c5b300be
:103ae0008e00e8008048780022c0b3008e00780085
:103af00050072000c4ff07000080fa000000060005
:103b00000400fa000e81e8000049780063004700d5
:103b1000014878000e80e80010407800f1c5b3003d
:103b2000814f500001003600f0c5b3008e80e800e0
:103b3000804878006300470010407800f1c5b3006a
:103b4000814f500001003600f0c5b300e30047008c
:103b5000804878000e80e8001040780070404000f7
:103b6000004f78006300470010407800f0404000ac
:103b70000e00e8000148780022c0b3008e007800f3
:103b800050012000a0ff07000080fa00000006009e
:103b90000200fa00004f78001e4078000004e000a8
:103ba00002003200e00a200001003700f00a200085
:103bb0000041eb008000eb0093ff07000080fa005b
:103bc000000006000000fa0000c8bf00e24f5000ed
:103bd000010032001dff070000c8bf00e24f500087
:103be000020032000080eb000300370080c0eb00d1
:103bf00000c0eb00e2fe07000080fa0000000600b3
:103c00000400fa00004f78000e00e8000148780038
:103c10000e80e800024878000e80e800104178002d
:103c20000e00e800904078001e40780041ff070039
:103c3000020007000080fa00000006000200fa00ff
:103c4000000f780000c8bf00e14f500001003200b3
:103c5000f5fe070000c8bf00e14f500007003a0022
:103c60001e007800804078001e0078004800de00ca
:103c700000407800c2fe070001003700000000008d
:103c80000080fa00000006000000fa002e01070084
:103c90000080fa00000006000000fa0063a6a900f8
:103ca00077a6a90077e6a9008a26a9008a66a90056
:103cb0008b06a9008b26a9008f06a90067a6a8007d
:103cc0008e26a90010002000da01070067a6a900cf
:103cd00020002000e801070067a6a8008f06a800c2
:103ce00010002000d30107000040eb00a8ff0700f0
:103cf000800c2000cf010700f1c5b3000040eb00ad
:103d00007fff0700f1c5b3000040eb0062ff070032
:103d1000b6fe07000080fa00000006000200fa006c
:103d200001c6b3000040eb0075ff070001c6b300f9
:103d30000040eb0058ff07000040eb00004f780008
:103d4000110037008040eb000e00e80001487800c9
:103d50000700370010408000b8ff07000e00e800a1
:103d6000104078008040e8000e00e800014878002c
:103d70000e00e80090407800f0c5b30080cf5000fe
:103d8000f4ff36001e4fe800f0c5b3009e407800f7
:103d900080cf5000ebff36000080fa0000000600e4
:103da0000200fa00000f78009e00780011408800a1
:103db000daff07000080fa00000006000000fa00a9
:103dc000104080000080fa00000006000000fa00a9
:103dd0001033800000b0a000103388001033800042
:103de00000c0a00010338800103380000080a100c4
:103df00010338800103380000090a1001033880039
:103e0000b033800000c0a000b0338800f0338000e1
:103e100000c0a000f033880080002000603a8800d5
:103e2000313a8000f0f02f0000806000303a8800c6
:103e3000313a8000f0cf2f0000806000303a8800d7
:103e40004747a80047e7a8004827ef004a27ef00a8
:103e500000c0eb004ae7b700513a8000f00f2e0097
:103e60000080600000c0a000503a88000080fa0086
:103e7000000006001400fa0068010700d3ff0700e5
:103e800001c1b30066004700014878000000eb0064
:103e9000000f78008000eb000e80e8000108780039
:103ea0008000eb0068004700010878008000eb000c
:103eb000640047000108780000c62f00b8ff070023
:103ec0006a0047009e1f780001282900811f7800a2
:103ed00050f10700e48757006a0047000501200001
:103ee0000002780033c0b30032c0b30011c0b30089
:103ef00030c2b3004bfd07006f0047008e80e80022
:103f0000911f780001282900811f780041f10700e6
:103f1000e487570066004700104078008080fb006f
:103f20006f004700810278000002780033c0b300c0
:103f300032c0b30021c3b30030c2b30039fd070063
:103f40004627a800200320003a0107004627a900c1
:103f500000000000303a8000610060000000e000d6
:103f6000fcff3200913880006800470001087800ab
:103f70000e80e8001000780070005000e800470054
:103f800091007800810f500007003c000e80e8008f
:103f90001000780070004000e800470091007800b1
:103fa000810f50001a003d006f00470005c62f002a
:103fb0000002780033c0b30032c0b30021c3b300a5
:103fc00030c2b30017fd07000e80e800e80047008c
:103fd000110878006f0047008e80e800911f78007c
:103fe00001282900811f78000af10700e4875700a3
:103ff0006f004700050120000002780033c0b300c5
:1040000032c0b30021c3b30030c2b30005fd0700c6
:104010002133800000002100008060000000e000eb
:104020001f003a0064004700100078000000e00024
:104030000e003a00110020006400470001087800db
:10404000040037000041eb008000eb00700a200004
:104050006dfe070021338000000021000080600019
:104060000000e000f7ff32000d0037008000eb0099
:104070006400470001087800040037000041eb00ad
:104080008000eb00600a20005ffe07002133800003
:1040900000002100008060000000e000f7ff320017
:1040a0002133800000802000008060000000e000dc
:1040b0001f003a006a00470005c62f000002780082
:1040c00033c0b30032c0b30011c0b30030c2b3007c
:1040d000d4fc07006706a8001e0fe8006a0047002e
:1040e0009e1f780001282900811f7800c9f0070071
:1040f000e48757006a0047000501200000027800ad
:1041000033c0b30032c0b30011c0b30030c2b3003b
:10411000c4fc070000000000213380000080200064
:10412000008060000000e000fbff320084ff3700e9
:104130006706a90082ff37000000fa00f5e3a90036
:104140000080fa00000006000000fa00a11f8000b5
:1041500000002800008060000000e00007003a0036
:1041600000122000a01f88000424ef0077e6a900b9
:10417000f5e3a80010c0b300010037000040eb00d9
:104180000080fa00000006000200fa00004f7800ec
:104190001e80fb000020880000000000e01f80005f
:1041a000610060000000e000fcff320000208000a1
:1041b000004078000080fa00000006000600fa00c7
:1041c0000e81e800000978006400470001087800cb
:1041d0000e80e800100f7800060037001e007800ff
:1041e00010407800e8ff07009e00780080487800c3
:1041f0001e0fe800640047001000780000f0a700e0
:104200000000ea000000ea004f00de0000407800f5
:10421000e4004700910078000101e900e400470054
:10422000820878000004e000ecff3a000080fa0009
:10423000000006000600fa000e81e8000009780080
:1042400064004700010878000e80e800100f780035
:10425000040037001e007800104078001e0fe800b0
:10426000c9ff0700640047001000780000f0a700b5
:104270000000ea000000ea004f00de000040780085
:10428000e4004700910078000101e900e4004700e4
:10429000820878000004e000eeff3a000080fa0097
:1042a000000006000600fa000e81e8000009780010
:1042b00064004700010878000e80e800100f7800c5
:1042c000050037000040eb00afff07009e007800bc
:1042d000804878001e0fe800640047001000780056
:1042e00000f0a7000000ea000000ea004f00de0036
:1042f00000407800e4004700910078000101e900e7
:10430000e4004700820878000004e000edff3a0076
:104310000080fa00000006000200fa00004f78005a
:104320001e80fb00002088000080fa0000000600cc
:104330000000fa0000208000004078000080fa00b1
:10434000000006000000fa006626ef007a26ef0063
:104350008e26ef000080eb00103388000080eb0019
:10436000b03388000080eb00503488007426ef00e2
:104370008826ef009c26ef007226ef008626ef00cd
:104380009a26ef006826ef007c26ef009026ef00cb
:1043900001088000f00b2000008160006004200014
:1043a00071052000031020008049780081497800c1
:1043b00082497800113f800000f82f0000806000e3
:1043c0007000b300103f8800113f8000f00f2800fc
:1043d0000080600000b0a000103f8800c13d800058
:1043e00000fc2f0000806000d000b300c03d8800ba
:1043f00000088000000178000260a0006004200036
:104400007105200003102000804978008149780060
:10441000824978000080fa00000006000000fa00df
:10442000c8ff07002e0007001bfe07000080fa00ef
:10443000000006000200fa00000f780003003700b9
:1044400000fa2000010020005f0007001e00780035
:1044500000f0a7000000ea000000ea004f00de00c4
:10446000004078001e0fe9000004e000f4ff3a006d
:104470000080fa00000006000200fa00000f780039
:104480000500370000082000010020004e00070052
:1044900001fe2f001e8f40001e007800ff0f50000d
:1044a000f8ff3e000300370040002000010020001c
:1044b000450007001e00780000f0a7000000ea0099
:1044c0000000ea004f00de00004078001e0fe90007
:1044d0000004e000f4ff3a000080fa00000006004b
:1044e0000000fa0000002300100888000621ef00f9
:1044f0006821ef006a21ef000821ef000070200022
:10450000500888000c21ef000e21ef007821ef0009
:104510007a21ef007c21ef007e21ef008021ef0067
:104520008221ef008421ef008621ef000001eb00e3
:1045300080072000a1092000131020008049780086
:1045400081497800824978000001eb006004200076
:10455000710520000310200080497800814978000f
:0c456000824978000080fa00000006008c
:020000040000fa
:10456c0000080000040000008000000004080000a7
:10457c000200000080000000060800001c00000083
:10458c0082000000286e69006c29000068076c002e
:10459c00094c83006a907400a07ac0000080680007
:1045ac00880084006c82000081000000220800005a
:0c45bc0002000000800000000000000071
:020000040000fa
:1045c800f03fb1000180b10006003500ee0309009c
:1045d80000000000403fb1000180b100fbff3d003a
:1045e8001000b000203fb000020035000080090034
:0845f8000000000000000600b5
:020000040000fa
:020000040005f5
:045e0000ffffff00a1
:020000040000fa
:020000040005f5
:045e2000ffffff0081
:020000040000fa
:020000040005f5
:045e300078ffff00f8
:020000040000fa
:020000040005f5
:045e38004bffff001d
:020000040000fa
:020000040005f5
:045e40009fffff00c1
:020000040000fa
:020000040005f5
:045e4800ffffff0059
:020000040000fa
:020000040005f5
:045e5000deffff0072
:020000040000fa
:020000040005f5
:045e5800ffffff0049
:00000001FF
